:020000040800F2
:1000000070E100204501000801240008FF1C0008E1
:10001000CD22000815050008654600080000000014
:100020000000000000000000000000001939000876
:10003000F110000800000000352B00081D3B0008EF
:100040005F0100085F0100085F0100085F01000810
:100050005F0100085F0100085F0100085F01000800
:100060005F0100085F0100085F0100085F010008F0
:100070005F0100085F0100085F0100085F010008E0
:100080005F0100085F0100085F0100085F010008D0
:100090005F0100085F0100085F010008F518000813
:1000A0005F0100085F0100085F0100085F010008B0
:1000B0005F0100085F010008A53F00085F0100081C
:1000C0005F0100085F0100085F0100085F01000890
:1000D0005F010008594100084D4200085F01000817
:1000E0005F0100085F0100085F0100085F01000870
:1000F0005F0100085F0100085F0100085F01000860
:100100005F0100085F0100085F0100085F0100084F
:100110005F0100085F0100085F0100085F0100083F
:100120005F0100085F0100085F0100085F0100082F
:10013000DFF80CD000F08EF900480047C96B0008CA
:1001400070E100200648804706480047FEE7FEE7CA
:10015000FEE7FEE7FEE7FEE7FEE7FEE7FEE7FEE777
:100160005D3B000831010008D2B201E000F8012B2C
:10017000491EFBD270470022F6E710B513460A4627
:1001800004461946FFF7F0FF204610BD30B505467E
:100190002A460B4612F8010B13F8014B08B1A04296
:1001A000F8D01CB1002802D06D1CF1E7284630BD04
:1001B000F0B480EA0102D40F4200B2EB410F02D248
:1001C0000246084611464A0042D0C30DDDB2C1F3D3
:1001D000C752AD1A202D35DAC1F3160141F40002E1
:1001E00004B15242C5F1200602FA06F12A41104438
:1001F000B3EBD05F23D0C4B1012DA0EBC35009DC19
:10020000F0BC4FF0004202EAC352DBB200F500003E
:1002100000F0F2B8400000F1807000EBC350A0F194
:10022000807040EAD170490009E0490841EAC07194
:10023000A0EBC35000F50000400800EBC350F0BC39
:1002400000F0D1B86142012202EB4101001BF6E748
:10025000F0BC704781F00041AAE780F00040A7E7BA
:1002600080EA010210B502F00043400022D04A00AB
:100270001FD0010E01EB1261C0F35600C2F356020B
:1002800040F4000042F40002A0FB022000047F3989
:10029000140400D0401C50EA124001D44000491E12
:1002A000C2B20C0604EBD010401C4008802A02D0D9
:1002B00003E0002010BD20F00100002900DA00203A
:1002C000184310BD30B480EA010202F0004530F05E
:1002D000004221F0004013D090B1C30DD40DC2F301
:1002E0001601C0F31600E41A41F4000140F40002C4
:1002F0007D34914201D3641C00E04900002C02DAF5
:1003000030BC002070474FF400000023914201D31D
:10031000891A034340084FEA4101F7D151B1914294
:1003200002D14FF0004105E002D24FF0010101E09F
:100330006FF0010103EBC450284430BC00F053B807
:10034000C10F80EAE0700844CA079623002100F03C
:1003500053B896230022114600F04EB8002801DB66
:10036000C0F10040002901DBC1F10041814270472A
:10037000002801DBC0F10040002901DBC1F1004190
:10038000884270472DE9F05F0546002092469B4663
:1003900088460646814640241BE02846414647469B
:1003A000224600F078F853465A46C01A914110D3BD
:1003B00011461846224600F05FF82D1A67EB010837
:1003C0004F4622460120002100F056F817EB0009A5
:1003D0004E41201EA4F10104DFDC484631462A4686
:1003E0004346BDE8F09F0029A8BF7047401C490064
:1003F00008BF20F00100704710B4B0FA80FC00FA8A
:100400000CF050EA010404BF10BC704749B1CCF1B4
:10041000200421FA04F411FA0CF118BF0121214340
:100420000843A3EB0C01CB1D4FEA00614FEA1020FB
:1004300042BF002010BC704700EBC350104400299D
:10044000A4BF10BC7047401C490008BF20F0010049
:1004500010BC7047064C074D06E0E06840F0010311
:1004600094E8070098471034AC42F6D3FFF764FED7
:10047000A83D0308C83D0308202A04DB203A00FAFF
:1004800002F1002070479140C2F1200320FA03F3EB
:10049000194390407047202A04DB203A21FA02F0E9
:1004A0000021704721FA02F3D040C2F120029140AE
:1004B00008431946704770B58D1810F8014B14F0B9
:1004C000030201D110F8012B231106D110F8013BD2
:1004D00003E010F8016B01F8016B521EF9D1ABB1CA
:1004E00010F8012B04F00C048A1A0C2C03D0A2EB98
:1004F00084129B1C08E010F8014BA2EB0422F8E7E1
:1005000012F8014B01F8014B5B1EF9D5A942D4D377
:10051000002070BD00BFFEE71CB50020019000F078
:10052000D3F866480078012817D100F093F96448A1
:10053000008864490988884202DD00205F4908700C
:100540005F480088B0F5917F04DC5E480088B0F514
:10055000917F02DD0020594908700A2004F0D6FF7F
:100560005648007801283FD100F0B2F800F004FAB4
:1005700003F0D4F901909DF80400082835D132E049
:1005800000F024FA42F20F7004F0C0FF42F20F7044
:1005900004F0BCFF42F20F7004F0B8FF42F20F709B
:1005A00004F0B4FF42F20F7004F0B0FF42F20F709B
:1005B00004F0ACFF42F20F7004F0A8FF42F20F709B
:1005C00004F0A4FF42F20F7004F0A0FF42F20F709B
:1005D00004F09CFF42F20F7004F098FF42F20F709B
:1005E00004F094FF00E0CBE766E0002001F0FCFBA4
:1005F000002018234D22C8210090082001F034FD6E
:10060000002018236522C8210090102001F02CFD45
:10061000002018236122C8210090184601F024FD13
:10062000002018237322C8210090202001F01CFD17
:10063000002018237522C8210090282001F014FD05
:10064000002018237222C8210090302001F00CFDF8
:10065000002018236522C8210090382001F004FDF5
:10066000002018234622C8210090482001F0FCFCFD
:10067000002018236122C8210090502001F0F4FCD2
:10068000002018236922C8210090582001F0ECFCBA
:10069000002018236C22C8210090602001F0E4FCA7
:1006A000002018236C22C8210090682001F0DCFC97
:1006B0004FF4FA5004F02AFF1CBD00007C0000201B
:1006C0008C0000208E00002010B504F0F7FB10BD58
:1006D0002DE9F04F89B04FF0000AD3460020079073
:1006E0001E2006903C2005901E2004905349097856
:1006F000534A1278881800EBD071C1F34701089172
:100700005048048831E02046089901F021FC054654
:10071000EE12C5F3451705F01F080A2E23DD192F29
:1007200021DDB8F10F0F1EDD1E2E1CDC3C2F1ADC64
:10073000B8F11E0F17DCB24500DAB246BB4500DA4D
:10074000BB460798404501DACDF81C800698B042B8
:1007500000DD06960598B84200DD059704984045EF
:1007600001DDCDF81080601C84B2374800888442D7
:10077000C9DB06990AEB010000EBD071C1F3470118
:10078000039105990BEB010000EBD071C1F3470118
:100790000291049A0799881800EBD071C1F34701C0
:1007A0000191002404E0002028490855601C84B20F
:1007B000B4F5A07FF7DB214890F8009036E021489F
:1007C0000088401C84B229E04946204601F0C0FB65
:1007D0000546EE12C5F3451705F01F08039886423B
:1007E00013DB0298874210DB019880450DDB4FF642
:1007F000FF70174908804946204601F059FB13480D
:10080000005D401C1149085506E000201049088091
:100810004946204601F04CFB601C84B20A4800881F
:100820008442D1DB09F101001FFA80F90448007805
:100830008145C4DB09B0BDE8F08F00006E000020E8
:100840006D0000208C0000208E00002070DB002056
:10085000140000202DE9F04100203A4908804FF4AF
:10086000A0703949088006460027384804783AE0E5
:10087000002533E02146284601F06AFB80464046C9
:1008800002F0C6FA324801683248FFF771FD23D200
:1008900031492F480068FFF76BFD1DD22F480168D2
:1008A0002F48FFF765FD17D22E492C480068FFF747
:1008B0005FFD11D22C4801682948FFF759FD0BD282
:1008C0002A4929480068FFF753FD05D2B54200DAEE
:1008D0002E46BD4200DD2F46681C85B2B5F5A07FCF
:1008E000C8DB601C84B2224800788442C0DB701DE3
:1008F00014490880781F144908801448047809E0D6
:100900001F201C49088021460E48008801F0D0FABB
:10091000601C84B2164800788442F1DB0B480478EE
:1009200009E01F201349088021460748008801F08C
:10093000BFFA601C84B20E4800788442F1DBBDE847
:10094000F08100008C0000208E0000206E0000204E
:100950008800002000009B4300003E4384000020EC
:100960000000C8420000A040800000200000A0411C
:100970006D0000201400002008B5002000901BE04E
:100980004FF478400F4908800F48BDF80010405CD4
:1009900028B90021BDF8000001F08AFA07E00A48F2
:1009A000BDF80020815CBDF8000001F081FABDF8BF
:1009B0000000401C80B20090BDF80000B0F5A07FA0
:1009C000DEDB08BD1400002070DB0020F8B5FC4819
:1009D0000088401E84B235E301E0601E84B2F9480D
:1009E000005D0028F9D0601CF749088001E0601E16
:1009F00084B2F448005D0028F9DCF4480480F24831
:100A00000088F2490988401A042812DA01E0601EC1
:100A100084B2EC48005D0028F9D0601CEA490880E7
:100A200001E0601E84B2E748005D0028F9DCE74879
:100A30000480E7A003F0A8FE01E0601E84B2E14854
:100A4000005D0028F9D0601CE249088001E0601ECA
:100A500084B2DC48005D0028F9DCDF480480DD4812
:100A60000088DD490988401A042812DA01E0601E76
:100A700084B2D448005D0028F9D0601CD5490880B4
:100A800001E0601E84B2CF48005D0028F9DCD24846
:100A90000480D2A003F078FE01E0601E84B2C94851
:100AA000005D0028F9D0601CCD49088001E0601E7F
:100AB00084B2C448005D0028F9DCCA480480C848F4
:100AC0000088C8490988401A042812DA01E0601E2B
:100AD00084B2BC48005D0028F9D0601CC049088081
:100AE00001E0601E84B2B748005D0028F9DCBD4813
:100AF0000480BDA003F048FE01E0601E84B2B1484E
:100B0000005D0028F9D0601CB849088001E0601E33
:100B100084B2AC48005D0028F9DCB5480480B348D5
:100B20000088B3490988401A042812DA01E0601EDF
:100B300084B2A448005D0028F9D0601CAB4908804D
:100B400001E0601E84B29F48005D0028F9DCA848DF
:100B50000480A8A003F018FE01E0601E84B299484A
:100B6000005D0028F9D0601CA349088001E0601EE8
:100B700084B29448005D0028F9DCA04804809E48B7
:100B800000889E490988401A042812DA01E0601E94
:100B900084B28C48005D0028F9D0601C964908801A
:100BA00001E0601E84B28748005D0028F9DC9348AC
:100BB000048093A003F0E8FD01E0601E84B2814848
:100BC000005D0028F9D0601C8E49088001E0601E9D
:100BD00084B27C48005D0028F9DC8B480480894899
:100BE000008889490988401A042812DA01E0601E49
:100BF00084B27448005D0028F9D0601C81490880E7
:100C000001E0601E84B26F48005D0028F9DC7E4878
:100C100004807EA003F0B8FD01E0601E84B2694844
:100C2000005D0028F9D0601C7949088001E0601E51
:100C300084B26448005D0028F9DC7648048074487A
:100C4000008874490988401A042812DA01E0601EFD
:100C500084B25C48005D0028F9D0601C6C490880B3
:100C600001E0601E84B25748005D0028F9DC694845
:100C7000048069A003F088FD01E0601E84B2514841
:100C8000005D0028F9D0601C6449088006E06448D3
:100C90000088844200DC05E0601E84B24948005DA3
:100CA0000028F4DC00BF5F4804805D4804885E488B
:100CB000067864E01F205D490880701C81B24248BC
:100CC000008801F0F5F8701C81B24048008801F0FE
:100CD000EFF8701C81B23F48008801F0E9F8701C01
:100CE00081B23D48008801F0E3F8701C81B23C48B5
:100CF000008801F0DDF8701C81B23A48008801F0EC
:100D0000D7F8701C81B23948008801F0D1F8701C06
:100D100081B23748008801F0CBF8701C81B23648A8
:100D2000008801F0C5F8701C81B23448008801F0D9
:100D3000BFF8701C81B23348008801F0B9F8701C0C
:100D400081B23148008801F0B3F8701C81B230489C
:100D5000008801F0ADF8701C81B22E48008801F0C7
:100D6000A7F8701C81B22D48008801F0A1F8701C12
:100D700081B22C48008801F09BF8701C86B22C4888
:100D80000078864296DB114801880F48008801F000
:100D90007BFB01F0D1FE2421002001F099FA0546E9
:100DA000294624A003F0F0FC0A2D4DDA182000900B
:100DB0002448425D0123C8211E2001F0DDF950E0E6
:100DC0008E00002070DB00209000002092000020A8
:100DD0004100000094000020960000204200000026
:100DE000980000209A000020430000009C00002092
:100DF0009E00002044000000A0000020A20000206F
:100E000045000000A4000020A600002046000000CD
:100E1000A8000020AA00002047000000AC0000202D
:100E20008C000020AE0000206E0000201400002086
:100E30006D000020524553554C5420312025640D3F
:100E40000A000000D30000204FF4FC6080490880B5
:100E5000002000907F48425D1823C8211E2001F029
:100E600003F97D4885717D4801887D48008801F03F
:100E70000BFB01F061FE2421002001F029FA054658
:100E8000294678A003F080FC0A2D09DA182000908A
:100E90007048425D0123C821282001F06DF908E067
:100EA000002000906B48425D1823C821282001F0E3
:100EB000DBF8694845716F4801886F48008801F088
:100EC000E3FA01F039FE2421002001F001FA054681
:100ED00029466AA003F058FC242D09DA1820009056
:100EE0005C48425D0123C821322001F045F909E048
:100EF000002000905748425D1823C8214FF4FA7033
:100F000001F0B2F8544805716048018860480088D3
:100F100001F0BAFA01F010FE2421002001F0D8F906
:100F2000054629465BA003F02FFC0A2D09DA18209C
:100F300000904848425D0123C8213C2001F01CF983
:100F400008E0002000904348425D1823C8213C205F
:100F500001F08AF84048C57052480188524800881C
:100F600001F092FA01F0E8FD2421002001F0B0F92F
:100F7000054629464DA003F007FC0A2D09DA182082
:100F800000903448425D0123C821462001F0F4F866
:100F900008E0002000902F48425D1823C821462019
:100FA00001F062F82C488570002018232E22C821F9
:100FB0000090502001F058F84048018840480088CF
:100FC00001F062FA01F0B8FD24210A2001F080F955
:100FD000054629463BA003F0D7FB0A2D09DA182065
:100FE00000901C48425D0123C8215A2001F0C4F83A
:100FF00008E0002000901748425D1823C8215A20BD
:1010000001F032F8144845703248018832480088AF
:1010100001F03AFA01F090FD2A21242001F058F95C
:101020000546A5F12301C8B22822A02103F01CFB2C
:10103000A5F1230008490870294628A003F0A4FB65
:10104000601E84B22948008884423FF7C5ACF8BDD1
:1010500014000020D30000201B0100209600002077
:1010600094000020524553554C542032203D2564B5
:101070000D0A00009A0000209800002052455355A8
:101080004C542033203D25640D0A00009E000020B2
:101090009C000020524553554C5420343D25640D8E
:1010A0000A000000A2000020A00000205245535575
:1010B0004C542035203D25640D0A0000AA00002074
:1010C000A8000020524553554C542037203D25643C
:1010D0000D0A0000AE000020AC0000205245535520
:1010E0004C542038203D25640D0A00008C0000205F
:1010F0007047000010B50446214610A003F044FBE1
:10110000240300F043F900F0DBF800200D490860EB
:10111000202002F099FBC4F3074002F095FBC4F3D2
:10112000072002F091FBE0B202F08EFB012006499D
:10113000C1F8B40100F0C4F810BD000066653A259E
:10114000780D0A00B40124420000244208B50121B0
:101150004FF4C47001F0E2FD4FF40050ADF8000010
:1011600010208DF8030003208DF8020069461E4808
:1011700000F036FD4FF400511B4800F0BEFD4FF467
:101180008040ADF800006946174800F029FD4FF493
:101190008041154800F0B1FD4FF48050ADF80000DB
:1011A00010208DF803006946104800F019FD4FF437
:1011B00080510E4800F0A1FD4FF40070ADF8000022
:1011C00069460B4800F00CFD4FF40071084800F030
:1011D00094FD01200749086002F0F0FA00F036F8AB
:1011E0000549088008BD000000200140000C0140B6
:1011F000001C0140B4012442240000202DE9F041EC
:1012000006460C46174600200F490860032002F0EE
:101210001BFBC4F3074002F017FBC4F3072002F0E6
:1012200013FBE0B202F010FB002505E0FF2002F006
:101230000BFB7055681C85B2BD42F7DB01200249EB
:101240000860BDE8F0810000B401244210B500241C
:1012500000200E490860902002F0F6FA002002F00B
:10126000F3FA002002F0F0FA002002F0EDFAFF207D
:1012700002F0EAFA44EA0024FF2002F0E5FA04430F
:1012800001200349C1F8B401204610BDB401244235
:101290000000244210B50024002007490860052002
:1012A00002F0D2FAFF2002F0CFFA044601200349EF
:1012B000C1F8B401204610BDB4012442000024420C
:1012C00010B500BFFFF7E6FF00F001000028F9D1DC
:1012D00010BD00002DE9F05F81460F461646DFF88D
:1012E000A8B04FEA1738C7F30B0ACAF58054A642D4
:1012F00000DC344644E04FEA08314FF4805258464F
:10130000FFF77CFF002508E00AEB05001BF8000052
:10131000FF2800D003E0681C85B2A542F4DB00BFC3
:10132000A54216DA4046FFF7E5FE002507E019F86A
:10133000050005EB0A010BF80100681C85B2A54207
:10134000F5DB4FEA08314FF48052584600F02EF892
:1013500004E022463946484600F028F8A64200D16B
:101360000FE008F101084FF0000AA1442744301BA8
:1013700086B2B6F5805F02DD4FF4805400E034465B
:10138000B9E700BFBDE8F09F181B002010B5002092
:1013900004490860062002F057FA01200249C1F80A
:1013A000B40110BDB4012442000024422DE9F041F3
:1013B00007460E461446F0B2C0F58075AC4200DC1C
:1013C000254612E02A463146384600F013F8AC4272
:1013D00000D10BE02F442E44601B84B2B4F5807F13
:1013E00002DD4FF4807500E02546EBE700BFBDE865
:1013F000F08100002DE9F04106460C461746FFF744
:10140000C5FF00200F490860022002F01DFAC4F356
:10141000074002F019FAC4F3072002F015FAE0B20F
:1014200002F012FA002504E0705D02F00DFA681C6B
:1014300085B2BD42F8DB012002490860FFF740FF9A
:10144000BDE8F081B401244210B5002440210C48CD
:1014500000F053FC4FF47A7004F058F80CE04FF4AD
:10146000FA73002207A108A000F0C2F900B110BD74
:1014700000F024F9601CC4B20A2CF0DB00BFF6E7D0
:10148000001801404F4B00004154000010B540F2DD
:10149000DC53002217A118A000F0AAF9B8B100BFD0
:1014A0001648B0F800046FF30E001449A1F80004C8
:1014B0004FF480611148FEF75EFE40F6C41310A29F
:1014C0000CA111A000F094F90446002CE8D018A05B
:1014D00003F05AF94FF44873002206A11AA000F055
:1014E00087F94FF4FA731CA21CA11DA000F080F92B
:1014F00010BD00004F4B000041540000182B00208D
:10150000414C52454144590041542B434950535496
:101510004152543D22544350222C223139322E3133
:1015200036382E34332E313337222C3830383000D1
:10153000416C726561647920436F6E6E656374659A
:1015400064210D0A0000000041542B4349504D4FC7
:1015500044453D31000000003E0000000D0A00003F
:1015600041542B43495053454E44000010B586B0BA
:1015700004460CB1012000E00020024606A101A8AB
:1015800003F012F94FF4FA73002207A101A800F04A
:101590002FF906B010BD000041542B4349504D5562
:1015A000583D2564000000004F4B000038B504464C
:1015B00001214FF4A07001F0B1FB4020ADF8000014
:1015C00010208DF8030003208DF8020069460B48B7
:1015D00000F006FB8020ADF800006946084800F0E6
:1015E000FFFA204602F082FE4021044800F085FB0D
:1015F0008021034800F07FFB38BD00000018014047
:101600000020014030B59FB004460D462B462246CF
:1016100006A101A803F0C8F841F28833002208A10E
:1016200001A800F0E5F81FB030BD000041542B4385
:10163000574A41503D222573222C22257322000057
:101640004F4B000010B5044624B1012C0AD0022CE7
:1016500018D10FE040F6C4130BA20EA10EA000F0AB
:10166000C7F810BD40F6C41307A20AA10DA000F0F0
:10167000BFF8F6E740F6C41303A206A10CA000F0E1
:10168000B7F8EEE70020ECE76E6F206368616E67E5
:10169000650000004F4B000041542B43574D4F4411
:1016A000453D310041542B43574D4F44453D320099
:1016B00041542B43574D4F44453D330010B5402115
:1016C000054800F018FB4FF4FA7003F01FFF4021AB
:1016D000014800F012FB10BD0018014010B50DA02C
:1016E00003F052F88021104800F007FBFFF7ACFE32
:1016F0000020FFF7A7FF00BF0CA10FA0FFF782FF9C
:101700000028F9D00020FFF731FF0DA003F03CF8CE
:1017100010BD00000D0AD5FDD4DAC1ACBDD34150D7
:101720002E2E2E0D0A00000000200140787A6D3127
:1017300031313738390000004855415745490000DC
:101740000D0AC1ACBDD34150B3C9B9A6210D0A00E1
:101750002DE9F04186B007460C4615461E464FF06F
:1017600000083FB1224614A1144802F0F8FE4FF0E1
:1017700001081CE0052E06DAAB1C324610A101A8B8
:1017800003F012F804E0AA1C12A101A803F00CF85F
:101790004FF47A73002213A101A800F029F84FF446
:1017A0007A73002210A1204600F022F880464046BD
:1017B00006B0BDE8F0810000257300000044004041
:1017C00041542B43495053454E443D25642C2564D8
:1017D0000000000041542B43495053454E443D25E1
:1017E000640000003E20000053454E44204F4B0053
:1017F0002DE9F04106460C4615461F462548B0F82F
:1018000000046FF30E002349A1F80004324622A120
:10181000234802F0A4FE1CB915B90120BDE8F081EF
:10182000B8B203F073FE00201A49B1F80014C1F3F6
:101830000E01184A505411461AA002F0A5FFB4B187
:10184000ADB121461348FEF7A1FC08B1012000E02C
:10185000002040B929460F48FEF798FC08B1012046
:1018600000E0002008B10120D8E70020D6E744B10D
:1018700021460848FEF78AFC08B10120CEE7002087
:10188000CCE729460348FEF781FC08B10120C5E7F3
:101890000020C3E7182B002025730D0A000000006C
:1018A00000440040257300000EB50121084601F0F8
:1018B00035FA0721002000F073F980200190002004
:1018C0008DF8080008208DF8090001208DF80A0025
:1018D00001A800F04BF817208DF8000000208DF8CB
:1018E00001008DF8020001208DF80300684600F029
:1018F00089FD0EBD10B5802000F024F801280ED11E
:1019000000200949086001200849C1F898010849E8
:10191000C1F8980107480078401C064908708020EB
:1019200000F00AF810BD0000980123420000234295
:10193000008021422100002001490860704700001A
:1019400014040140014600200022074B1B6803EAF3
:101950000102054B14331B680B4013B10AB101207F
:1019600000E00020704700000004014000212349EE
:101970008279002A3AD00A46126803689A430B46D5
:101980001A600A1D126803689A430B1D1A600279D7
:1019900011440A6803681A430A60184A0832126838
:1019A00003689A43154B08331A601A1D12680368BE
:1019B0009A43124B0C331A604279102A0ED11A1F27
:1019C000126803681A430D4B08331A601A1D126817
:1019D00003681A43094B0C331A600DE0074942793A
:1019E00011440A6803681A430A6005E00279114449
:1019F0000A6803689A430A607047000000040140C7
:101A000010B500240EE04FF40C71002005F0DEFB51
:101A1000184941F82400084650F8240000B903E0B2
:101A2000601CC4B2032CEEDB00BF4FF40A7100202F
:101A300005F0CCFB104908604FF40A71002005F056
:101A4000C5FB0E4908604FF40071002005F0BEFB95
:101A50000B490860032C0AD10748006838B10748D1
:101A6000006820B10846006808B1002010BD0120C0
:101A7000FCE70000282F0020300000203400002068
:101A80004000002051B18200A2F1C042126842F031
:101A900001038200A2F1C042136009E08200A2F1BA
:101AA000C0421268034B1A408300A3F1C0431A607E
:101AB00070470000FEFF0F00D0E901121143C26819
:101AC0001143026911434269114382691143C2699A
:101AD0001143026A1143426A1143826A1143C26A86
:101AE0001143026B114302689200A2F1C0421160DF
:101AF000816808290BD101688900A1F1C0410968FA
:101B000041F0400201688900A1F1C0410A60416BC7
:101B10000968426B526841EA0211426B926841EADD
:101B20000221426B928941EA0241426B128A41EAE8
:101B30000251426B127D41EA0261426B926911438C
:101B40000268521C9200A2F1C0421160C16AB1F554
:101B5000804F1BD1816B0968826B526841EA021188
:101B6000826B926841EA0221826B128A41EA025139
:101B7000826B127D41EA0261826B926911430268B5
:101B80009200A2F1C042C2F8041107E06FF0704267
:101B900001688900A1F1C041C1F80421704700002B
:101BA00030B500228B071C0F0F2303FA04F20B4BF6
:101BB0008C1053F824309343084C8D1044F8253092
:101BC00023468C1053F824308C07240F00FA04F4B9
:101BD0002343024C8D1044F8253030BD08000140ED
:101BE0002DE9F041024600250026002000230024B4
:101BF000002791F803C00CF00F0591F803C00CF01A
:101C0000100CBCF1000F03D091F802C04CEA05059E
:101C100091F800C0BCF1000F31D0146800202BE017
:101C20004FF0010C0CFA00F3B1F800C00CEA030607
:101C30009E4220D183004FF00F0C0CFA03F7BC43F7
:101C400005FA03FC4CEA040491F803C0BCF1280F28
:101C500006D14FF0010C0CFA00FCC2F814C00AE0E7
:101C600091F803C0BCF1480F05D14FF0010C0CFAFC
:101C700000FCC2F810C0401C0828D1D31460B1F891
:101C800000C0BCF1FF0F34DD546800202EE000F1ED
:101C9000080C4FF0010808FA0CF3B1F800C00CEA88
:101CA00003069E4221D183004FF00F0C0CFA03F77C
:101CB000BC4305FA03FC4CEA040491F803C0BCF1F0
:101CC000280F05D100F1080C08FA0CF8C2F81480AE
:101CD00091F803C0BCF1480F07D100F1080C4FF098
:101CE000010808FA0CF8C2F81080401C0828CED36E
:101CF0005460BDE8F081416170470161704700BFE9
:101D0000FEE7000008B50121442001F007F801209A
:101D1000ADF8000028208DF8030003208DF80200A4
:101D200069460848FFF75CFF1C20ADF8000048201A
:101D30008DF8030003208DF8020069460248FFF782
:101D40004FFF08BD000801400018014010B50446CF
:101D500022480078012826D12148006801280AD0AD
:101D60002048006838B11F48001F006818B11D489E
:101D7000001D0068B8B90A2003F0C8FB002017490D
:101D8000087017480068012800D110BD1548006888
:101D900008B90220F9E71348001F006808B90320BA
:101DA000F3E70420F1E70E48006878B90D480068B1
:101DB00001280BD10B48001F0068012806D10948F3
:101DC000001D0068012801D104490870012C02D1CE
:101DD0000120024908700020D7E700002000002001
:101DE000000121420C01234270B506460F4840888D
:101DF000401E83B20D480088401E82B20021084672
:101E000000F0D0F800240CE0002504E0304600F09B
:101E10003DFA681C85B205484088A842F6DC601C83
:101E200084B202480088A042EEDC70BD1800002099
:101E300000B50246B2B9012000F01CFA4FF48070E0
:101E400000F01EFA032000F015FA41F2300000F015
:101E500017FA4FF4C8700E494880F020088000201F
:101E6000887114E0012000F005FA002000F008FA63
:101E7000032000F0FFF941F2380000F001FAF020F1
:101E8000034948804FF4C87008800120887100BD64
:101E90001800002070B504460D4616462B46224613
:101EA0002946204600F07EF8304600F0EFF970BD7C
:101EB00030B504460D462B4622462946204600F002
:101EC00071F80248008800F0E1F930BD14000020EC
:101ED0002DE9F04304460D4616461F46DDF81C80EA
:101EE000B44201DCBD4201DDBDE8F0833B46324631
:101EF0002946204600F056F8301B401C84B2781B5F
:101F0000401C85B20BE0A94602E0404600F0BEF955
:101F10005FEA0900A9F101011FFA81F9F5D120005A
:101F2000A4F101018CB2EED100BFDDE710B502468D
:101F3000012000E050430B00A1F10104E1B2F9D10E
:101F400010BD000001480088704700000008006CC8
:101F50002DE9F04104460D4600260027B046104802
:101F60000088A04203DD0E484088A84202DC002021
:101F7000BDE8F0812B4622462946204600F012F8A3
:101F800040F2022000F076F9FFF7DCFF0646FFF78B
:101F9000D9FF0646FFF7D6FF06463046E8E70000C1
:101FA0001800002030B505460C462E48807950BBFD
:101FB0004FF4047000F05EF9284600F061F940F239
:101FC000112000F057F9104600F05AF940F21220A3
:101FD00000F050F9204600F053F940F2132000F0D1
:101FE00049F9184600F04CF94FF4007000F042F93E
:101FF000284600F045F940F2012000F03BF9204668
:1020000000F03EF929E040F2122000F033F92846B2
:1020100000F036F940F2132000F02CF9104600F0E1
:102020002FF94FF4047000F025F9204600F028F94C
:1020300040F2112000F01EF9184600F021F940F29C
:10204000012000F017F9284600F01AF94FF400704B
:1020500000F010F9204600F013F940F2022000F0E1
:1020600009F930BD180000202DE9F84F80460D46D3
:1020700017461C46AB462046E31704EB5373DB10B0
:1020800021464FEAE47C04EB5C7C4FEAEC0CA4EBC9
:10209000CC0CBCF1000F02D04FF0010C01E04FF06E
:1020A000000C6344224604EBD27C4FEA6C0C03FB29
:1020B0000CF3DBB20093A7F12000C7B200264CE07E
:1020C000102C05D1274800EB071010F806900BE004
:1020D000182C07D107EBC700234901EB800010F84B
:1020E000069001E0BDE8F88F4FF0000A2FE009F0FC
:1020F000800030B11D48028829464046FFF7CAFEDD
:1021000007E00A9828B91A48028829464046FFF78E
:10211000C1FE4FEA49604FEA1069681C85B2154854
:102120004088A84200DCDDE7A5EB0B00A0420AD105
:102130005D4608F101001FFA80F80E48008840450E
:1021400000DCCFE706E00AF1010000F0FF0ABAF177
:10215000080FCCDB00BF701CC6B200988642AFDB14
:1021600000BFBFE73A7500082A7B00081400002072
:1021700016000020180000202DE9FF4F81B007460F
:1021800091461E460E9D4FF0000A002439E0301B98
:10219000401EC1B20A20FFF7C9FEB9FBF0F00A21C8
:1021A000B0FBF1F201FB1208BAF1000F16D1701E5C
:1021B000A04213DDB8F1000F0ED10020AB4605EBB5
:1021C000DB71491001FB0471009088B22B4620227C
:1021D0000299FFF749FF12E04FF0010A0020AB46D9
:1021E00005EBDB71491001FB0471009088B208F126
:1021F0003001CAB22B460299FFF736FF00BF601CC0
:10220000C4B2B442C3DB05B0BDE8F08F2DE9F84796
:1022100004460D4690469946DDE9096704F0FF0A39
:1022200008EB04001FFA80F809EB05001FFA80F99B
:1022300016E0444502DB5446A81985B24D4500DB43
:1022400014E0002000903A78334629462046FFF7F4
:102250000BFF304606EBD07104EB61018CB27F1CA2
:1022600038787E2802DC38782028E2DA00BFBDE822
:10227000F88700000149088070470000FE07006CE5
:1022800001490880704700000008006C014908807F
:10229000704700000008006C08B50121102000F014
:1022A0003DFDFF20ADF8000010208DF80300032055
:1022B0008DF8020069460448FFF792FCFF210248AE
:1022C000FFF71BFD08BD00000010014000BFFEE746
:1022D00013B58AB0002009900890079006900590E9
:1022E000049003900290019000249DF8280008902B
:1022F00078E00024002007903DE03F489DF81C1046
:10230000405C04909DF81C009DF82010962202FB72
:1023100001003A49085C03900020069022E09DF8F5
:102320001810012088409DF81010084002909DF878
:102330001810012088409DF80C10084001909DF86D
:1023400008009DF80410884200D1641C9DF8080024
:102350009DF80410884200D0641E9DF81800401CAF
:10236000C0B206909DF818000828D8DB9DF81C0024
:10237000401CC0B207909DF81C009628BDDBBDF83C
:102380002400A04204DAA0B209909DF82000059034
:102390001020022300909DF82020DC213220FFF73E
:1023A000EBFE002C08DA102004230022DC21009030
:1023B0004620FFF7E1FE07E0102004232246DC213F
:1023C00000904620FFF7D8FE102004230090BDF8AF
:1023D0002420DC217820FFF7CFFE9DF82000401C50
:1023E000C0B208909DF820009DF82C10884280DB38
:1023F0009DF814000CB010BDB0DC00207802002065
:102400007047000070B5002100230F22C47804B388
:10241000154C246804F4E064C4F5E064210AC1F1B9
:102420000403CA40447804FA03F184781440214339
:1024300009010E4C0678A155047804F01F0501240B
:10244000AC4005786D11AD0005F1E025C5F80041FF
:1024500009E0047804F01F050124AC40044D06781F
:10246000761145F8264070BD0CED00E000E400E078
:1024700080E100E002490143024A11607047000018
:102480000000FA050CED00E02DE9FF5F07460E465F
:10249000B81B23287EDAD8480078401C00F0FF0AD9
:1024A000D6480078401E00F0FF0B14E0701C84B288
:1024B0000AE051462046FFF74BFD8046B8F1000F79
:1024C00000D003E0601C84B2BC42F2DB00BFB8F174
:1024D000000F00D006E05FEA0A000AF1010101F0F6
:1024E000FF0AE3D100BF14E0701C84B20AE0594631
:1024F0002046FFF72DFD8046B8F1000F00D003E025
:10250000601C84B2BC42F2DB00BFB8F1000F00D007
:1025100006E05FEA0B00ABF1010101F0FF0BE3D134
:1025200000BFAAF1010000F0FF0A0BF1020000F069
:10253000FF0B4FF6FF70B249088051463046FFF757
:10254000B7FC59463846FFF7B3FC002001900AF16A
:10255000010927E00A25701C84B217E0494620468D
:10256000FFF7F6FC8046A648A0F80080019A02F129
:10257000BF01BA1B521E40F20F139A1A2A4490B29E
:10258000FFF796FC681CC5B2601C84B2BC42E5DB58
:10259000019800E009E1401CC0B2019009F101007E
:1025A0001FFA80F9D945D5DB00200190B81B401EE9
:1025B000C0F11801B81B401E91FBF0F0C0B20390AF
:1025C000B81B401EC0F11801B81B401E91FBF0F271
:1025D00000FB1210C0B20290029828B11821029894
:1025E00091FBF0F0C0B200900AF1010965E00A2504
:1025F000B81B401EC0F11801B81B401E91FBF0F241
:1026000000FB1210C0B20290701C84B24BE049462D
:102610002046FFF79DFC80467948A0F80080019A8B
:1026200002F1BF0105F20F10FFF742FC681CC5B2B2
:10263000B81B401EC0F11801B81B401E91FBF0F002
:10264000C0B203900FE06E48A0F80080019A02F13A
:10265000BF0105F20F10FFF72BFC0398401EC0B21C
:102660000390681CC5B203980028ECD10298C0B151
:10267000681C009990FBF1F201FB120088B9012D52
:102680000FD05F48A0F80080019A02F1BF0105F267
:102690000F10FFF70DFC0298401EC0B20290681C9C
:1026A000C5B2601C84B2BC42B1DB0198401CC0B210
:1026B000019009F101001FFA80F9D94597DBABEBD6
:1026C0000A00322871DAABEB0A00401CC0F132017B
:1026D000ABEB0A00401C91FBF0F0C0B20390ABEBF7
:1026E0000A00401CC0F13201ABEB0A00401C91FB18
:1026F000F0F200FB1210C0B202903221029891FB5E
:10270000F0F0C0B2009000254FF000096EE040F2FA
:102710000F1412E009F1BF0081B22046FFF718FC48
:1027200080463748A0F8008005F1BF0104F1190286
:1027300090B2FFF7BDFB601C84B2B4F5947FE9DB77
:10274000681CC5B220E040F20F1414E009F1BF008C
:1027500081B22046FFF7FCFB80462948A0F80080A4
:1027600005F1BF024A4491B204F1190290B2FFF799
:102770009FFB601C84B2B4F5947FE7DB0398401E96
:10278000C0B20390681CC5B203980028DBD1029840
:1027900040B3681C009990FBF1F201FB120008BBEA
:1027A000012D1FD040F20F1413E023E009F1BF0008
:1027B00081B22046FFF7CCFB80461148A0F800808C
:1027C00005F1BF0104F1190290B2FFF771FB601C23
:1027D00084B2B4F5947FE9DB0298401EC0B2029047
:1027E000681CC5B209F101001FFA80F9ABEB0A00C1
:1027F00048458CDCBDE8FF9F6E0000206D00002086
:102800001400002070B50446002534B1012C06D018
:10281000032C06D0042C08D105E0B02505E098254E
:1028200003E0182501E0302500BF00BF29465520F0
:1028300000F0FCFC70BD2DE9F04104468025222605
:102840005E2734B1012C08D0032C0AD0042C10D1FF
:102850000BE0402511262F270BE066251B264B2772
:1028600007E099252826712703E0C02533268D2708
:1028700000BF00BF29464F2000F0D8FC2946502059
:1028800000F0D4FC0021512000F0D0FC3146522051
:1028900000F0CCFC3946532000F0C8FC29465420F7
:1028A00000F0C4FC9E21582000F0C0FCBDE8F0817F
:1028B00070B50446402534B1012C06D0032C06D057
:1028C000042C08D105E0302505E0382503E050252B
:1028D00001E0602500BF00BF2946562000F0A6FC9D
:1028E00070BD000038B500250121DC2000F016FA8B
:1028F00048208DF803008020ADF8000003208DF8FB
:10290000020069463148FFF76BF910208DF803008B
:10291000C020ADF8000069462D48FFF761F9C021DD
:102920002B48FFF7EAF948208DF80300FF20ADF8A7
:10293000000069462748FFF753F910208DF803007F
:102940004020ADF8000069462348FFF749F94021CF
:102950002148FFF7D2F90C20ADF8000010208DF8C7
:10296000030069461D48FFF73BF90C211B48FFF7A0
:10297000C4F900F02FFB8021122000F057FC08B1B1
:10298000012038BD322002F0C1FD0B2000F090FB89
:102990000446732C01D00220F3E70A2000F088FBE4
:1029A0000446762C01D00220EBE700250AE00C4A11
:1029B00002EB450251780A4A12F8150000F036FC85
:1029C000681C85B2A82DF2D30020DAE70008014088
:1029D000000C0140001C01400018014000100140A3
:1029E0005E8A00082DE9F0410446E725002600270D
:1029F000012C06D0022C08D0032C0AD0042C10D1B4
:102A00000BE0E5255A265C270BE0E52558266027D4
:102A100007E0E52584264C2703E0E5259626402798
:102A200000BF00BF2946132000F000FC3146012002
:102A300000F0FCFB3946022000F0F8FBBDE8F08115
:102A40002DE9F04104460425C0268027072C1DD21D
:102A5000DFE804F01C04080C10141800242580265C
:102A6000802713E01425802680270FE01425C02638
:102A700080270BE014254026402707E014258026F8
:102A8000C02703E01425A026402700BF00BF294629
:102A90003A2000F0CBFB3146682000F0C7FB3946F6
:102AA000672000F0C3FBBDE8F0812DE9F047054643
:102AB0000E469046994605EB48001FFA80FA06EB51
:102AC000490087B2B7F5447F02DDA7F5447087B2AD
:102AD000032000F0EDFA044604F0F0040AF00301CC
:102AE000284661F39F0004432146032000F09EFB2B
:102AF000C5F38701192000F099FBCAF387011A205A
:102B000000F094FB322000F0D3FA044604F0C00435
:102B100007F00701304661F3DF000443C6F3C70145
:102B2000172000F083FBC7F3C701182000F07EFBDD
:102B3000BDE8F087704700002DE9F041002504E072
:102B4000002022494855681C85B2962DF8DB0025E7
:102B500038E0002432E005F1BE0291B204F594722F
:102B600090B2FFF7F5F906464FF6FF70864223D183
:102B70002046E21704EB527205EB450303EBE20239
:102B8000124B9A5C2146E31704EB5373DB10A4EB62
:102B9000C303C3F1070C012303FA0CF31A43E31731
:102BA00004EB537305EB450C0CEBE303DFF81CC09F
:102BB0000CF80320781C87B2601C84B2182CCADB86
:102BC000681C85B2322DC4DBBDE8F081B0DC00208A
:102BD00070B5ADF5856D0546112229462D48006872
:102BE00003F0DCF80646002E4DD12B48B0F8000467
:102BF0006FF30E002849A1F800040523002227499D
:102C00000120FEF7A5FD264A26A10DF5816001F001
:102C1000CBFD052300220DF581610120FEF798FD13
:102C20000523002225490120FEF792FD4220244978
:102C3000088020E001AB4FF4806202A915480068CB
:102C400003F077F9064600240CE002A8005D1C4959
:102C5000088000BF1A48001F008800F040000028CC
:102C6000F8D0641C01988442EFD31EB90198B0F5E6
:102C7000806F00D200E0DDE700BF0523002211A134
:102C80000120FEF765FD0348006802F08AFF0DF59C
:102C9000856D70BD34000020182B0020303D0308E6
:102CA00054590200436F6E74656E742D4C656E67E7
:102CB00074683A25640D0A0D0A000000C03C030840
:102CC000044400400D0A2D2D2D2D787A6D313233BC
:102CD0003435363738392D2D0D0A000029B1064A12
:102CE00052690243044B5A6104E0034A5269824329
:102CF000014B5A61704700000010024029B1064A9A
:102D0000D2690243044BDA6104E0034AD269824388
:102D1000014BDA61704700000010024029B1064AF9
:102D200092690243044B9A6104E0034A9269824328
:102D3000014B9A61704700000010024030B500213D
:102D40000022002400232D4D6D6805F00C0121B1F7
:102D5000042905D0082923D105E0294D056022E08A
:102D6000274D05601FE0254D6D6805F47012234D59
:102D70006D6805F48034022505EB92421CB9214DA3
:102D8000554305600BE01D4D6D6805F400351DB120
:102D90001C4D5543056002E0194D5543056002E0A6
:102DA000174D056000BF00BF144D6D6805F0F001C0
:102DB0000909154D6B5C0568DD4045600F4D6D6878
:102DC00005F4E061090A104D6B5C4568DD408560E3
:102DD0000A4D6D6805F46051C90A0B4D6B5C45687E
:102DE000DD40C560054D6D6805F44041890B074D18
:102DF0006B5CC568B5FBF3F5056130BD00100240A2
:102E000000127A0000093D000000002010000020A0
:102E10002DE9FC5F0446E012C0EB00201F2190FB6F
:102E2000F1F0C5B2C4F34510C0EB00203F2190FB88
:102E3000F1F0C6B204F01F00C0EB00201F2190FB90
:102E4000F1F0C7B22846FDF784FA82462846FDF71E
:102E500080FA01903046FDF77CFA80460199FDF733
:102E600087FA03D83046FDF774FA82463846FDF7F4
:102E700070FA80465146FDF77BFA03D83846FDF7D5
:102E800068FA82463046FDF764FA80465146FDF7FF
:102E900065FA03D83046FDF75CFA01903846FDF735
:102EA00058FA80460199FDF759FA03D83846FDF7DC
:102EB00050FA019051463E48FDF7D2F980463D490F
:102EC000FDF700FA3C49086050460199FDF7C2F948
:102ED00081463749FDF7C4F980465146FDF7F2F9BE
:102EE000364908602846FDF734FA80465146FDF71A
:102EF00035FA11D150460199FDF7ACF98146F01B26
:102F0000FDF71EFA83464946FDF7DCF980462C4959
:102F1000FDF7A6F92B4908603046FDF71AFA8046FE
:102F20005146FDF71BFA15D150460199FDF792F96C
:102F30008346781BFDF704FA59460090FDF7C2F965
:102F400081461F49FDF78CF980461F49FDF730F98E
:102F50001C4908603846FDF7FCF980465146FDF7EC
:102F6000FDF915D150460199FDF774F98346A81B68
:102F7000FDF7E6F959460090FDF7A4F9814610499E
:102F8000FDF76EF980461149FDF712F90D49086009
:102F900000210C480068FDF7E1F906D20C49094808
:102FA0000068FDF757F907490860BDE8FC9F00007D
:102FB0000000C84200007F43800000208400002001
:102FC00000007042880000200000F04200007043C2
:102FD0000000B44308B501211020FFF79FFE4020F8
:102FE000ADF8000048208DF8030003208DF80200A2
:102FF00069460B48FEF7F4FD40210948FEF77DFEC7
:103000001020ADF800008DF8030069460448FEF773
:10301000E7FD10210248FEF770FE00F07FF808BDC2
:103020000010014010B5322002F096FA01200B4941
:1030300008600B49C1F89001322002F08DFA00209F
:10304000064908390860322002F086FA0020044957
:10305000C1F89801322002F07FFA10BD9801224297
:103060000000224270B5002400F04AF8082515E05F
:10307000322002F071FA01200B4908606006040E4C
:103080000A48D0F8180108B1601CC4B2322002F01E
:1030900063FA002004490860681EC5B2002DE7DC11
:1030A00000F03CF8204670BD900122420000224210
:1030B00070B50446002500F043F8422000F074F893
:1030C000642002F049FA204600F06EF8642002F015
:1030D00043FA00F04FF8642002F03EFA00F030F8B6
:1030E000432000F061F8642002F036FAFFF7BAFFDF
:1030F0000546FFF797FF00F03DF8284670BD000039
:1031000008B54020ADF8000048208DF8030069465E
:103110000148FEF765FD08BD0010014008B54020DC
:10312000ADF8000010208DF8030003208DF8020098
:1031300069460248FEF754FD08BD0000001001403A
:1031400010B50120094908600949C1F890013220F1
:1031500002F002FA002005490860322002F0FCF972
:1031600000200349C1F8900110BD000098012242DF
:103170000000224210B5002009490860322002F008
:10318000EBF901200749C1F89001322002F0E4F97F
:10319000012003490860322002F0DEF910BD000072
:1031A000980122420000224270B5044600261BE02E
:1031B00004F0800018B101201A49086002E00020E4
:1031C000184908606006040E322002F0C5F901209B
:1031D000144908390860322002F0BEF90020124973
:1031E000C1F89001701CC6B2082EE1DBFFF788FF22
:1031F000322002F0B1F901200A4908390860322072
:1032000002F0AAF90848D0F8180108B1012500E039
:1032100000250020034908390860FFF77FFF284692
:1032200070BD0000980122420000224270B50546A0
:103230000C460026FFF784FF4220FFF7B5FF00B1E0
:103240000126642002F088F92846FFF7ADFF00B19F
:103250000126642002F080F92046FFF7A5FF00B1A7
:103260000126FFF787FF304670BD000010B5012032
:1032700002490860FF2000F0C3F910BDB8012442E4
:1032800070B5054601220021092000F002FA04462B
:1032900024B91021284600F055F90446FFF7E6FF4F
:1032A0000CB1012070BD0020FCE770B505464FF65B
:1032B000FF7401E0601E84B2FF2000F0A1F9A84273
:1032C00001D0002CF6D10CB9FF2070BD0020FCE726
:1032D0007FB56846FFF7D4FF10B1002004B070BD81
:1032E0009DF8000000F0C000402809D19DF80900B9
:1032F0009DF8081000EB0120401C84B2A50220E0DC
:103300009DF8050000F00F009DF80A1000EBD110A9
:103310009DF8091001F0030100EB4100861C9DF8A7
:10332000080080119DF8071000EB81009DF8061041
:1033300001F0030100EB8120441CA6F1090004FA0E
:1033400000F52846CAE70000F8B500F017F900F0CC
:1033500062F9002504E0FF2000F052F9681C85B2F4
:103360000A2DF8DB142600BF95220021084600F044
:1033700090F90446012C04D03000A6F101018EB270
:10338000F2D1002051490870012C4AD187224FF414
:10339000D571082000F07DF9012847D1002506E00D
:1033A000FF2000F02DF90DF80500681C85B2042DF2
:1033B000F6DB9DF80200012879D19DF80300AA28C8
:1033C00075D14FF6FE7600BF01220021372000F0B4
:1033D00060F901229107292000F05BF9044624B12D
:1033E0003000A6F101018EB2EED1002E5FD0012295
:1033F00000213A2000F04DF9002858D1002506E0C0
:10340000FF2000F0FDF80DF80500681C85B2042DC2
:10341000F6DB9DF8000000F0400018B106202B49B3
:10342000087044E004202949087040E0012200218E
:10343000372000F02EF901220021292000F029F97F
:103440000446012C17DC0220204908704FF6FE7656
:1034500000BF01220021372000F01BF901220021CA
:10346000292000F016F90446BCB13000A6F1010194
:103470008EB2EED111E00120144908704FF6FE76AD
:1034800000BF01220021104600F003F9044624B1D8
:103490003000A6F101018EB2F3D12EB1012251020A
:1034A000102000F0F6F810B1002008490870FFF76E
:1034B000DDFE00F0ABF80548007808B10020F8BD4B
:1034C0000CB12046FBE7AA20F9E70000230000200A
:1034D0002DE9F04106460F461546194800780628A2
:1034E00000D07F02012D0CD101223946112000F0BD
:1034F000D0F80446FCB96902304600F023F80446CF
:1035000019E001223946122000F0C3F8044600BF3A
:103510004FF40071304600F015F8044606F50076C9
:10352000681EC0B2050001D0002CF1D0012200219C
:103530000C2000F0AEF8FFF799FE2046BDE8F081C0
:103540002300002070B504460D46FE20FFF7ADFEB7
:1035500008B1012070BD04E0FF2000F075F9207073
:10356000641C2800A5F101018DB2F5D1FF2000F007
:1035700047F8FF2000F044F80020EBE708B50121F0
:103580004FF4C470FFF7CAFB4FF48050ADF8000051
:1035900010208DF8030003208DF8020069461448BE
:1035A000FEF71EFB4FF480511148FEF7A6FB4FF4C7
:1035B0000070ADF8000069460E48FEF711FB4FF4AD
:1035C00000710C48FEF799FB4FF4C040ADF80000C5
:1035D00069460948FEF704FB4FF400510648FEF720
:1035E0008CFB00F0EBF801200449086008BD0000E6
:1035F000000C0140001C014000200140B8012442A1
:1036000010B50446204600F01FF910BD10B500208B
:1036100000F036F910BD10B5382000F031F910BDBA
:1036200010B500200549086000F06FF808B90020C7
:1036300010BDFFF71BFE0120FAE70000B80124428D
:1036400070B506460D4600F060F808B1012070BD67
:103650002846FFF7D5FFFD2D19D0002404E0305D8A
:1036600000F0F2F8601C84B2B4F5007FF7DBFF20B5
:10367000FFF7C6FFFF20FFF7C3FFFF20FFF7C0FFE4
:10368000044604F01F00052801D00220DFE70020D7
:10369000DDE72DE9F04105460C4617464FF00008DE
:1036A000FFF7E4FDFFF7BCFF10B1FF20BDE8F0819C
:1036B00045F04000FFF7A4FF200EFFF7A1FFC4F381
:1036C0000740FFF79DFFC4F30720FFF799FFE0B223
:1036D000FFF796FF3846FFF793FF0C2D02D1FF202E
:1036E000FFF78EFF4FF01F0800BFFF20FFF788FF96
:1036F000064606F0800030B15FEA0800A8F101013B
:1037000001F0FF08F1D13046D0E710B5002400BF2A
:10371000FF20FFF775FFFF2801D1002010BD641CBA
:103720006FF07F408442F3D30120F7E72DE9F041A9
:1037300006460F46154620480078062800D07F022E
:10374000012D0CD1012239461820FFF7A2FF0446B3
:103750006CBBFE213046FFF773FF044627E0164896
:103760000078012809D0012200213720FFF791FFBE
:10377000012229461720FFF78CFF01223946192024
:10378000FFF787FF044694B900BFFC213046FFF7DE
:1037900057FF044606F50076681EC0B2050001D04A
:1037A000002CF2D0FD210020FFF74AFF0446FFF76E
:1037B0005DFD2046BDE8F0812300002000B587B004
:1037C00001210820FFF7AAFA01218803FFF796FAE2
:1037D0004FF46040ADF8180018208DF81B0003204E
:1037E0008DF81A0006A91648FEF7FAF90020ADF880
:1037F00004004FF48270ADF806000020ADF8080018
:103800000220ADF80A000120ADF80C004002ADF82E
:103810000E003820ADF810000020ADF8120007208F
:10382000ADF8140001A9074800F058F80121054837
:1038300000F03AF8FF2000F007F807B000BD0000E4
:10384000000C01400038004010B5044600BF0221C2
:103850000A4800F035F80028F9D02146074800F062
:103860003BF800BF0121054800F02AF80028F9D0F4
:10387000024800F02EF8C0B210BD00000038004031
:1038800010B50446074800884FF6C771084005493F
:10389000088008460088204308800121014800F084
:1038A00003F810BD0038004021B1028842F0400208
:1038B000028004E002884FF6BF731A40028070470E
:1038C0000246002013890B400BB1012000E00020CC
:1038D00070470146888970478181704710B5002282
:1038E000028802F441520B884C8823438C8823437E
:1038F000CC8823430C8923434C8923438C8923435D
:10390000CC8923431A430280838B4FF2FF742340F8
:1039100083830B8A038210BD704700001FB500200F
:1039200003900290019031480088029040E03048B6
:10393000BDF80810405C70BB2E48007803900DE085
:10394000BDF80C00401C81B21F22BDF80800FEF734
:10395000A1FABDF80C00401C80B20390BDF80C0029
:10396000254909788842EBDB9DF80400401CC0B271
:103970000190BDF80800401E80B202900CE0BDF836
:103980000800401E80B20290BDF808001B4909885B
:10399000884201DC06E006E01548BDF80810405CEE
:1039A0000028ECD000BFBDF80800401E80B2029095
:1039B000BDF80800114909888842B8DC9DF8040068
:1039C000401EC0B201901820022300909DF80420F0
:1039D000DC211E20FEF7D0FB9DF8041008A000F0AB
:1039E000D3FE9DF8040004B010BD00008E0000203E
:1039F00070DB00206E0000206D0000208C00002095
:103A000025645F5F5F5F5F0D0A00000010B500F086
:103A100001F810BD0CB500200190009033480068FB
:103A200040F480303149086000BF3048006800F43D
:103A3000003000900198401C0190009818B901983E
:103A4000B0F5A06FF1D12948006800F4003010B142
:103A50000120009001E0002000900098012843D14F
:103A60002348006840F010002149086008460068BB
:103A700020F0030008600846006840F0020008607B
:103A80001A48406819494860084640684860084636
:103A9000406840F4806048600846406820F47C102C
:103AA00048600846406840F4E810486008460068EE
:103AB00040F08070086000BF0C48006800F00070A3
:103AC0000028F9D00948406820F003000749486001
:103AD0000846406840F00200486000BF0348406864
:103AE00000F00C000828F9D10CBD000000100240C5
:103AF00000200240042808D14FF0E021096941F07C
:103B000004014FF0E022116107E04FF0E021096964
:103B100021F004014FF0E02211617047704700006E
:103B200010B504466FF00400FFF7E4FFE11704EB63
:103B30005171C1F3C701074A11701046007800EBBC
:103B40004001C1EBC0104FF6FF7101EAC00002490D
:103B5000088010BD280000202A00002010B513485E
:103B6000006840F0010011490860084640681049AB
:103B700008400E494860084600680E4908400B4955
:103B800008600846006820F4802008600846406805
:103B900020F4FE0048604FF41F008860FFF736FFF6
:103BA0004FF000600449086010BD000000100240A2
:103BB0000000FFF8FFFFF6FE08ED00E000B59DB045
:103BC00001210802FFF78AF80120079000200890E1
:103BD0000F20099000200A900B900C900D9015205A
:103BE0000090019005200290002003900490059021
:103BF000069006200E9000200F901090102011903B
:103C00000020129014901390159016904FF480504D
:103C10001790002018904FF48040199000201A90BF
:103C200007A81B90CDF870D00EA8FDF745FF012125
:103C30000620FDF727FF1DB000BD000008B50121DB
:103C40004FF4B070FFF76AF84CF23370ADF8000033
:103C500018208DF8030003208DF8020069461048F3
:103C6000FDF7BEFF4FF68070ADF8000018208DF80C
:103C7000030003208DF8020069460A48FDF7B0FFF3
:103C800041F20100ADF8000018208DF80300032078
:103C90008DF8020069460448FDF7A2FF08BD000048
:103CA00000140140001801400020014010B5FFF74A
:103CB000C5FFFFF783FF322001F028FC0020FEF74C
:103CC000D9FAFEF73FF9B249888008468188B1A049
:103CD00000F05AFD0020FEF7CDFA0020FEF7CAFAE8
:103CE0000A2001F013FC0020FEF7C4FA0020FEF7C2
:103CF000C1FA0020FEF7BEFA0020FEF7BBFA002052
:103D0000FEF7B8FA0020FEF7B5FA0020FEF7B2FA87
:103D10000020FEF7AFFA0A2001F0F8FB4FF48060B4
:103D2000FEF7A8FA4FF4C440FEF7AAFA0820FEF7FF
:103D3000A1FA40F60800FEF7A3FA4FF44070FEF730
:103D400099FA0520FEF79CFA40F20130FEF792FA4C
:103D500044F60640FEF794FA40F20230FEF78AFA83
:103D600040F20260FEF78CFA40F20330FEF782FA6E
:103D700040F20C50FEF784FA4FF44170FEF77AFAE5
:103D80004FF44C50FEF77CFA40F20530FEF772FA21
:103D900040F60540FEF774FA40F20630FEF76AFA84
:103DA00044F20620FEF76CFA40F20730FEF762FAA2
:103DB00040F20C60FEF764FA4FF44270FEF75AFAD4
:103DC0004FF4A060FEF75CFA40F20930FEF752FAB9
:103DD0003320FEF755FA1020FEF74CFA1420FEF7B8
:103DE0004FFA1120FEF746FA40F20110FEF748FAAA
:103DF0001220FEF73FFA0020FEF742FA1320FEF7EA
:103E000039FA0120FEF73CFA4FF48070FEF732FADF
:103E10004FF44C70FEF734FA40F20110FEF72AFA24
:103E200040F24720FEF72CFA40F20310FEF722FA88
:103E30004FF48050FEF724FA4FF42070FEF71AFA80
:103E40004FF45E40FEF71CFA4FF48170FEF712FA51
:103E50004DF2B010FEF714FA0A2001F057FB0120D2
:103E6000FEF708FA4FF48070FEF70AFA0220FEF718
:103E700001FA4FF48070FEF703FA0320FEF7FAF917
:103E800041F23000FEF7FCF90920FEF7F3F90120BA
:103E9000FEF7F6F90C20FEF7EDF90020FEF7F0F939
:103EA0009020FEF7E7F94FF40040FEF7E9F90F2004
:103EB000FEF7E0F90020FEF7E3F94FF40470FEF797
:103EC000D9F90020FEF7DCF940F21120FEF7D2F913
:103ED000EF20FEF7D5F940F21220FEF7CBF90020D3
:103EE000FEF7CEF940F21320FEF7C4F940F28F102E
:103EF000FEF7C6F94FF4A060FEF7BCF90020FEF70C
:103F0000BFF940F20150FEF7B5F90020FEF7B8F90D
:103F100040F20250FEF7AEF95F20FEF7B1F940F231
:103F20000140FEF7A7F90120FEF7AAF940F204408C
:103F3000FEF7A0F90020FEF7A3F90A2001F0E6FA47
:103F40000720FEF797F94FF48070FEF799F90A20E1
:103F500001F0DCFA4FF40070FEF78CF90020FEF758
:103F60008FF940F20120FEF785F90020FEF788F96D
:103F70000A2001F0CBFA40F20220FEF77BF9002084
:103F8000FDF756FF4FF6FF70FDF72EFF10BD000046
:103F900018000020204C43442049443A25780D0A5B
:103FA0000000000010B501210C4800F068F878B15D
:103FB0000B48006808B9012000E0002008490860AB
:103FC0000848017808A000F0DFFB002005490870D0
:103FD0000121024800F044F810BD00000008004034
:103FE00084012242220000206672616D653A2564D8
:103FF0006670730D0A0000007FB505460C4601216E
:104000000420FEF77BFEADF80850ADF80440002018
:10401000ADF80A00ADF8060001A9104800F04AF812
:10402000012211460D4800F03BF801210B4800F039
:1040300017F81E208DF8000002208DF801000320E3
:104040008DF8020001208DF803006846FEF7DAF9CA
:104050000121024800F007F87FBD00000008004081
:10406000CA430282704721B1028842F001020280F5
:1040700004E002884FF6FE731A400280704730B5A4
:104080000246002000230024158A05EA01039589D1
:1040900005EA010413B10CB1012000E0002030BD9D
:1040A0001AB183890B43838102E083898B43838127
:1040B00070470000002202881D4B98420ED01D4B15
:1040C00098420BD0B0F1804F08D01B4B984205D0DE
:1040D0001A4B984202D01A4B984204D14FF68F7374
:1040E0001A404B881A43174B984207D0164B9842F8
:1040F00004D04FF6FF431A40CB881A4302808B88C6
:1041000083850B8803850A4B98420BD0094B984254
:1041100008D00E4B984205D00D4B984202D00D4B63
:10412000984201D10B7A03860123838270470000F5
:10413000002C014000340140000400400008004011
:10414000000C0040001000400014004000400140FE
:10415000004401400048014010B540F225510C4890
:1041600000F038F970B10A4800F0F0F9C4B2214605
:10417000074800F0F0F900BF4021054800F01DF9A4
:104180000128F9D14021024800F002F910BD0000D9
:104190000038014010B586B0044601210420FEF726
:1041A000BDFD01218803FEF7B9FD01210846FEF798
:1041B000B5FD4FF40070ADF8140003208DF8160023
:1041C00018208DF8170005A91E48FDF709FD4FF4CA
:1041D0008060ADF8140004208DF8170005A9194877
:1041E000FDF7FEFC01940020ADF80800ADF80A00D0
:1041F000ADF80C00ADF810000C20ADF80E0001A9D0
:10420000114800F037F901210F4800F0CAF84021A9
:104210000D4800F0BDF8012240F225510A4800F097
:1042200003F925208DF8000003208DF801008DF89A
:10423000020001208DF803006846FEF7E3F806B09F
:1042400010BD0000000801400038014010B540F2E8
:104250002551204800F0BEF8D8B11E4800F076F98C
:10426000C4B21D48B0F80004C0F30E0040F2FF31A4
:1042700088420EDA1849B1F80014C1F30E00411C4F
:10428000154AB2F8002461F30E021349A1F8002484
:104290000C5440F224410F4800F09CF8012817D13B
:1042A0000D48B0F8000420F4004000F500400A4931
:1042B000A1F80004074800F049F9C4B207A1064874
:1042C000FBF764FF08B1012000E0002006490870F8
:1042D00010BD000000440040182B0020434C4F53F9
:1042E00045440D0A000000002600002010B586B0ED
:1042F000044601214804FEF701FD01210420FEF7D8
:104300000DFD0420ADF8140003208DF816001820D0
:104310008DF8170005A91C48FDF762FC0820ADF8D0
:10432000140004208DF8170005A91748FDF758FC64
:1043300026208DF8000000208DF801008DF8020085
:1043400001208DF803006846FEF75CF80194002018
:10435000ADF80800ADF80A00ADF80C00ADF810009B
:104360000C20ADF80E0001A9084800F083F80122E6
:1043700040F22551054800F057F80121034800F0AC
:1043800010F806B010BD00000008014000440040D5
:1043900001F40072B2F5007F00D100BFCA43028071
:1043A000704721B1828942F40052828104E08289FF
:1043B0004DF6FF731A408281704702460020B1F526
:1043C000007F00D100BF13880B400BB1012000E03B
:1043D0000020704770B5024600240023002500200D
:1043E00040F66A16B14200D100BFC1F3421501F098
:1043F0001F03012606FA03F3012D02D196893340EB
:1044000006E0022D02D1168A334001E0968A33403D
:104410000C12012606FA04F41688344013B10CB1CC
:10442000012000E0002070BDF0B503460024002606
:104430000025002040F66A17B94200D100BF184697
:10444000C1F3421401F01F06012707FA06F5012CFB
:1044500001D10C3004E0022C01D1103000E0143006
:104460001AB107682F43076002E00768AF4307608F
:10447000F0BD00002DE9F04786B005460E46002449
:10448000A24600BFA1460027B08900B100BF2F4659
:104490002C8A4CF6FF700440F08804432C82AC89CF
:1044A0004EF6F3100440B0883189084371890843FF
:1044B0000443AC81AC8A4FF6FF400440B08904430A
:1044C000AC8201A8FEF73AFC1F48874202D1DDF812
:1044D00010A001E0DDF80CA0A88900F4004040B174
:1044E0000AEBCA0000EB0A1031684900B0FBF1F892
:1044F00007E00AEBCA0000EB0A1031688900B0FB44
:10450000F1F86420B8FBF0F004012009642101FBFC
:104510001089A88900F4004040B1322000EBC900A6
:10452000B0FBF1F000F00700044308E0322000EB9C
:1045300009106421B0FBF1F000F00F0004432C815E
:1045400006B0BDE8F08700000038014001468888C9
:10455000C0F308007047C1F30802828070470FB4AF
:1045600070B586B006460CA8019073E00B980078F1
:104570005C281CD10B98401C0B9000786E2809D049
:1045800072280FD10D213046FFF7E5FF0B98401C34
:104590000B900BE00A213046FFF7DDFF0B98401C23
:1045A0000B9003E00B98401C0B9000BF4BE00B9866
:1045B0000078252840D10B98401C0B900078642887
:1045C00018D0732833D1019810C801900BE02178DE
:1045D0003046FFF7C0FF00BF80213046FFF7EDFEF9
:1045E0000028F9D0641C20780028F0D10B98401CDA
:1045F0000B9020E0019820C801900A2202A92846C9
:1046000002F0A0FA02AC0BE021783046FFF7A3FFDE
:1046100000BF80213046FFF7D0FE0028F9D0641C8F
:1046200020780028F0D10B98401C0B9003E00B98E9
:10463000401C0B9000BF06E00B9810F8011B0B907C
:104640003046FFF788FF00BF80213046FFF7B5FEF8
:104650000028F9D00B980078002887D106B070BCEC
:104660005DF814FB00BFFEE72DE9F04389B0064674
:104670000F469046012E09D1002405E03B48005D1D
:1046800001A90855601C84B2202CF7DB022E09D149
:10469000002405E03648005D01A90855601C84B27D
:1046A000202CF7DB032E09D1002405E03148005D02
:1046B00001A90855601C84B2032CF7DB042E09D134
:1046C000002405E02C48005D01A90855601C84B257
:1046D000202CF7DB052E09D1002405E02748005DDA
:1046E00001A90855601C84B2202CF7DB062E09D1E5
:1046F000002405E02248005D01A90855601C84B231
:10470000202CF7DB00242BE0002525E0EA1705EB41
:104710005272D21002EB440201AB9A5CEB1705EB2C
:104720005373DB10A5EBC303C3F1070C012303FA9A
:104730000CF31A4012B14FF6FF7901E04FF0000977
:104740001048A0F8009004EB080291B2EA1990B268
:10475000FDF7AEFB681C85B2102DD7DB601C84B260
:10476000102CD1DB09B0BDE8F0830000B8010020B7
:10477000D8010020F8010020180200203802002093
:1047800058020020140000200FB4054B10B503A9F7
:10479000044A029800F02CF810BC5DF814FB0000ED
:1047A00015690008141B00200FB4084B10B504A9AC
:1047B00002AA039800F01CF8044602A9002000F0A9
:1047C00048FA204610BC5DF814FB0000534C00086A
:1047D00002E008C8121F08C1002AFAD170477047CA
:1047E000002001E001C1121F002AFBD17047000028
:1047F0002DE9FF4F8DB00F460546002606E025281F
:104800000BD0DDE90F1290476D1C761C287800282C
:10481000F5D111B03046BDE8F08F0024A246A14684
:104820000122EC4900E0044315F8013F203B02FA65
:1048300003F00842F7D128782A2810D06FF02F0211
:104840002878A0F13001092914D80AEB8A0102EB7B
:10485000410144F0020400EB010A6D1CF0E701CFB6
:104860005FEA000A03D544F40054CAF1000A44F098
:1048700002046D1C28782E2817D115F8010F44F07A
:1048800004042A280ED06FF02F022878A0F13001FE
:1048900009290AD809EB890102EB410100EB010962
:1048A0006D1CF2E757F8049B6D1C28786C280FD01C
:1048B00006DC4C2817D068280DD06A2814D104E0F3
:1048C000742810D07A280FD10DE044F400140AE0C7
:1048D00044F4801401E044F440146978814202D128
:1048E00004F580146D1C6D1C2A786E2A1FD00CDC18
:1048F000632A31D004DC002A8BD0582A11D1A3E0DE
:10490000642A68D0692A0CD165E0732A2ED004DCB1
:104910006F2A73D0702A04D19BE0752A6FD0782A51
:104920006ED01046DDE90F129047761C50E1C4F3BB
:104930000250022806D0032809D0042801CF09D04C
:10494000066045E101CFF117C0E9006140E101CF08
:1049500006803DE106703BE117F8040B8DF800007E
:1049600000208DF80100EB46012003E057F804BB5E
:104970004FF0FF3061074FF0000102D40DE008F165
:104980000101884649450FDA8045F8DB1BF808101D
:104990000029F4D108E008F1010188468142FADBE0
:1049A0001BF808100029F6D1DDE90F23AAEB080057
:1049B0008146214600F036F9304400EB080604E059
:1049C000DDE90F121BF8010B9047B8F10108F7D28F
:1049D00021464846F7E00A21C4F302534FF0000B8A
:1049E0000891022B04D001CFC117032B09D00AE094
:1049F000FF1D27F00707F7E8020108E032E01FE09B
:104A000020E000B2C117042B01D140B2C117031E30
:104A100071F1000307DA4FF0000CD0EB0C006CEBE7
:104A200001012D2302E0230504D52B238DF824302A
:104A3000012303E0E30701D02023F7E7984658E07D
:104A40000A2110E010210EE010204FF0000B08901A
:104A50000CE010214FF0000B44F004044FF0080963
:104A6000089103E008214FF0000B0891C4F30253B2
:104A7000022B04D001CF0021032B06D006E0FF1D3E
:104A800027F00707F7E8020103E080B2042B00D10A
:104A9000C0B24FF0000823072BD5702A07D0DDF8ED
:104AA00020C08CF0100C5CEA0B0C05D00EE040230B
:104AB0008DF82430012308E050EA010306D03023AA
:104AC0008DF824308DF8252002239846DDF820C08B
:104AD0008CF0080C5CEA0B0C0BD150EA010301D1FD
:104AE000630706D530238DF824304FF00108A9F173
:104AF0000109582A04D038A20B9208AA0A920BE0A6
:104B00003AA2F9E75B46089AFBF73CFC0B9B9B5CDF
:104B10000A9A521E0A92137050EA0102F2D10A98C0
:104B2000ADEB000000F1200B600702D524F48034C7
:104B300001E04FF00109D94502DDA9EB0B0000E0CF
:104B4000002000EB0B0141440890AAEB010AE003AE
:104B500006D4DDE90F232146504600F063F80644F1
:104B60004FF0000908E009A911F80900DDE90F126A
:104B7000904709F10109761CC145F4DBE0030CD52F
:104B8000DDE90F232146504600F04CF8064404E0CE
:104B9000DDE90F1230209047761C0899481E0890D6
:104BA0000029F5DC08E00A980A990078491C0A9166
:104BB000DDE90F129047761CBBF10001ABF1010B50
:104BC000F1DC21465046DDE90F2300F019F80644D8
:104BD0006D1C1BE60928010030313233343536377D
:104BE0003839616263646566000000003031323339
:104BF00034353637383941424344454600000000D9
:104C00002DE9F041044600251E461746880404D4C9
:104C100005E039462020B0476D1C641EF9D52846B2
:104C2000BDE8F0812DE9F041044600251E4690467E
:104C3000C80301D5302700E02027880404D505E00B
:104C400041463846B0476D1C641EF9D52846BDE87C
:104C5000F0810A68531C0B60107070472DE9FF4FFC
:104C600095B08B461F46DDF888804FF0000A17B1DB
:104C7000B8F1000F03D1292019B0BDE8F08F0BEB7C
:104C80000700401E72490988884201DD2920F3E7A8
:104C900017984044401E6E494988884201DD29200A
:104CA000EAE74FF4806002F0A5FA04460CB911203F
:104CB000E2E74FF40A7002F09DFA14904FF40A7183
:104CC00064A0FFF761FD149820B9204602F099FA1C
:104CD0001120D1E74FF042094222002103A802F03F
:104CE00059FA2820CDF81A00CDF81E70CDF8228090
:104CF0000121ADF826101021ADF828100321CDF8C0
:104D00002A10DDF82210DDF81E205143BDF82820BE
:104D100001FB02F0C11700EB5171CA10CDF82E2033
:104D200044F64250ADF80C00DDF82E004844CDF8B2
:104D30000E00CDF816904FF47840CDF842004FF4B5
:104D4000FC61CDF846101F21CDF84A1023980128A8
:104D500005D10322DDE9140101F020F882462398F1
:104D600010B1BAF1040F05D10622DDE9140101F0FA
:104D700015F88246DDF81E104800C11700EB91714E
:104D80008910A0EB810161B1DDF81E104800C11748
:104D900000EB91718910491C4FF6FF7202EA8106FF
:104DA00005E0DDF81E004FF6FF7101EA4006BAF19A
:104DB000000F45D12A4B4A4603A9149801F0E9F99E
:104DC000824617984044401E80B201902DE0002595
:104DD000CDF808B014E0DDF81E00A84206DDDDE9DC
:104DE0000110FDF7B5F824F8150003E04FF6FF7049
:104DF00024F81500681C85B20298401C80B202900D
:104E000006EBD671B5EB610FE5D1DDF82200401E4F
:104E1000CDF82200124B32462146149801F0B9F920
:104E200082460198401E80B20190DDF822000028E1
:104E3000CDD151460BA0FFF7A7FC149800F0B1FEAE
:104E4000204602F0DEF9149802F0DBF9504613E731
:104E5000180000202073697A653D2025640D0A0042
:104E60003C0000207265733D2578000070B5064651
:104E7000002510E02A460BA13046FFF795FC0122E1
:104E800031460D48006800F089FF0446042C00D12B
:104E900005E0681C85B24FF6FF708542EADB00BF73
:104EA00070BD0000303A50484F544F2F50494325B1
:104EB0003035642E626D7000340000202DE9F04121
:104EC0004FF4A0704A49088000204A490880002514
:104ED00003E00020484948556D1CF02DF9D34748A0
:104EE0000078002877D00120FCF7A2FF44484088D2
:104EF000A0F1F00707EBD770C0F34F01EF2340F2AA
:104F00003F120020FDF74EF800203E490860802146
:104F10003D48FCF7F0FE80213B48FCF7EEFE802187
:104F20003948FCF7E8FE01203849C1F888018021A2
:104F30003548FCF7E2FE4FF496364AE080213248CD
:104F4000FCF7D9FE32480068C4B280212E48FCF735
:104F5000D4FE4FF6FF7000EA042480212A48FCF7B3
:104F6000CAFE2B480068C0B2044380212648FCF7E3
:104F7000C4FE2046FDF78AF9E01226490870C4F302
:104F800045102549087004F01F0024490870214885
:104F900000782349097888420EDD1F4800782149AE
:104FA0000978884208DB1D4800781F490978884243
:104FB00002DB4FF6FF7400E000241C4800888442A6
:104FC00004D00D48405D401C0B49485517480480EB
:104FD000761E002EB2D100200849087014480078CF
:104FE000401C134908700020FCF722FFBDE8F08147
:104FF0008C0000208E00002080DA0020210000209C
:105000001800002088012242000C014000002242CA
:10501000081C01406A0000206B0000206C0000208A
:10502000D0000020D1000020D20000206800002025
:105030002200002070B504460D4600202071401E5D
:10504000E0622946204601F0BFFF08B1032070BD91
:1050500094F82E1294F82F0241EA00204AF65521C6
:10506000884201D00220F2E794F86900010694F822
:10507000680041EA004194F8670041EA002094F892
:105080006610084320F07F400D49884201D100207E
:10509000DDE794F88500010694F8840041EA0041B8
:1050A00094F8830041EA002094F88210084320F02D
:1050B0007F400349884201D10020C8E70120C6E7AC
:1050C00046415400024600E0521C107810B110789E
:1050D0008842F9D11078704770B503460D46586A7A
:1050E000021D680A1E68B678B0FBF6F400BF02CA5B
:1050F00009B9002070BD8C4200D202E0641A121D72
:10510000F5E700BF10682044F4E70246891E5069A5
:10511000801E884201D8002070479378906A01FB76
:105120000300F9E72DE9F04780460C46A17EE07EBA
:1051300041EA002010B10020BDE8F087207800F09F
:105140003F00401E00EB800101EBC0064FF001095B
:10515000002524E01A48405D205C1949495D21443E
:10516000497840EA0127B9F1000F11D0FF2E0BD288
:10517000384601F04FF982463146761C38F8110066
:1051800001F048F9824501D00020D5E7B94605E095
:105190004FF6FF70874201D00020CDE76D1C0D2D2A
:1051A000D8D3207800F0400038B1B9F1000F04D016
:1051B00038F8160008B10020BEE70120BCE7000067
:1051C000AE8B00082DE9F04704468946B9F1000F7F
:1051D00006D1E76817B16069B84215D8012713E016
:1051E0004946204601F00EFC0646022E02D201205E
:1051F000BDE8F087701C08B93046F9E76069B04235
:1052000001D93046F4E74F463D4600BF6D1C60694A
:10521000A84204D80225BD4201D90020E8E729466A
:10522000204601F0EFFB064606B909E0701C08B104
:10523000012E01D13046DBE7BD42E7D10020D7E7A0
:1052400000BF6FF070422946204601F0E1FF804622
:10525000B8F1000F08D1B9F1000F05D02A46494630
:10526000204601F0D5FF8046B8F1000F0BD1E56074
:105270002069401C78B12069401E2061607940F0AF
:105280000100607107E0B8F1010F02D14FF0FF306B
:1052900000E0012005462846AAE700002DE9F34F6B
:1052A00083B0814604980068019002E00198401C98
:1052B0000190019800782F28F8D0019800785C2898
:1052C000F4D0D9F81CA000252F4600BF38467F1C1B
:1052D00001990C5C202C03DB2F2C01D05C2C00D11D
:1052E00032E0FF2D03D3062005B0BDE8F08FE4B215
:1052F000812C13DBE0B2FE2810DC38467F1C0199BC
:105300000E5C06EB042084B2402E01DB7E2E05DD10
:10531000802E01DBFE2E01DD0620E5E7012120467F
:1053200001F02CF804460CB90620DDE7802C06DAE3
:10533000214671A0FFF7C6FE08B10620D4E7284633
:105340006D1C2AF81040C1E700BF0198C1190498EC
:105350000160202C01DA042000E00020804608E0F3
:10536000681E3AF81040202C02D02E2C00D002E00B
:105370006D1E002DF4D100BF0DB90620B4E700204A
:105380002AF815000B222021D9F8180001F012FE8E
:10539000002700E07F1C3AF817002028FAD03AF8DE
:1053A00017002E28F6D00FB148F0030800E06D1E5C
:1053B00025B1681E3AF810002E28F8D100200646C4
:1053C00002904FF0080B00BF38467F1C3AF810409F
:1053D00004B963E0202C03D02E2C04D1AF4202D0BC
:1053E00048F00308F0E70298584501D2AF4214D1C3
:1053F000BBF10B0F02D148F003084FE0AF4201D0E0
:1054000048F00308AF4200D948E02F460820029038
:105410004FF00B0BB006060ED6E7802C09DB2046BA
:1054200000F0F8FF0021009000F0A8FF044648F0CB
:105430000208FF2C11DDABF101000299884204D86B
:1054400048F00308CDF808B0BEE72212D9F81830AA
:105450000298411C02911A5419E024B1214629A056
:10546000FFF730FE18B15F2448F003080FE0412C2D
:1054700004DB5A2C02DC46F0020608E0612C06DB55
:105480007A2C04DC46F00106A4F1200084B2D9F89D
:1054900018300298411C02911C5495E700BFD9F8BE
:1054A00018000078E52803D10520D9F818100870F5
:1054B000BBF1080F01D1B006060E06F00C000C2857
:1054C00003D006F00300032801D148F0020808F0D9
:1054D000020058B906F00300012801D148F0100875
:1054E00006F00C00042801D148F00808D9F818008B
:1054F00080F80B800020F7E6222A3A3C3E3F7C7F72
:10550000000000002B2C3B3D5B5D00000146114A72
:1055100012884A434FF0E0235A6100229A611A46EA
:10552000126942F001021A6100BF4FF0E0221069D7
:1055300000F001021AB100F48032002AF5D04FF0D9
:10554000E022126922F001024FF0E0231A610022EA
:105550009A6170472A0000200146114A12784A4396
:105560004FF0E0235A6100229A611A46126942F014
:1055700001021A6100BF4FF0E022106900F0010241
:105580001AB100F48032002AF5D04FF0E0221269FF
:1055900022F001024FF0E0231A6100229A61704765
:1055A000280000202DE9F04104460E460021204647
:1055B00000F0B7F90546EDB9002700BF2169206862
:1055C00001F002FD054605B113E060690078E528A9
:1055D00002D06069007820B9781C0746B04201D13A
:1055E00007E000270121204600F07FF80546002D46
:1055F000E4D000BF042D00D107252846BDE8F08186
:105600002DE9F04704460021204600F08AF90746BC
:1056100017B13846BDE8F0874FF0FF09CA464FF68C
:10562000FF70208400BF2169206801F0CDFC07468F
:1056300007B157E065692E780EB9042752E0E87A81
:1056400000F03F08E52E05D008F0080040B1B8F1A1
:105650000F0F05D04FF0FF094FF6FF7020843AE09E
:10566000B8F10F0F1CD1E06978B306F0400030B1FB
:1056700095F80DA026F04006B146E08820844E45FE
:105680000AD1687B504507D12946E069FFF74AFDFA
:1056900010B1A9F1010000E0FF2000F0FF091AE0BD
:1056A000B9F1000F05D1284601F091FE504500D117
:1056B00018E0A069C07A00F0010038B90B22284632
:1056C000A16901F057FC08B90CE004E04FF0FF09B4
:1056D0004FF6FF7020840021204600F006F80746B0
:1056E000002FA0D000BF384694E72DE9F0410446D2
:1056F0008846E088461CB0B208B1206910B9042081
:10570000BDE8F08106F00F0000286BD12069401C35
:105710002061E06828B920680089B04262D804207E
:10572000EEE720688078401E00EA1610002859D164
:10573000E168206801F066F90546012D01D80220D4
:10574000DEE7681C08B90120DAE720684069A84252
:1057500042D8B8F1000F01D10420D1E7E1682068F8
:10576000FFF730FD05460DB90720C9E7012D01D12E
:105770000220C5E7681C08B90120C1E7206801F0D4
:105780009AFE08B10120BBE7216801F130004FF417
:105790000072002101F00EFC29462068FFF7B5FCDD
:1057A0002168C86200270EE0012021680871206886
:1057B00001F081FE08B10120A2E72068C06A401C08
:1057C0002168C8627F1C20688078B842ECD82068C5
:1057D000C06AC01B2168C862E56029462068FFF7DF
:1057E00094FC2061E6802068303006F00F0100EB69
:1057F00041106061002083E72DE9FE4F0446D4F894
:105800001880D4F81C900C224146684601F0C5FB74
:1058100000BF9DF80B0000F0010020B3002088F8C5
:105820000B00E06101260CE033464A4669464046DB
:1058300001F082F82046FFF7E3FE054605B102E0DD
:10584000761C642EF0D300BF642E02D10720BDE881
:10585000FE8F042D01D02846F9E79DF80B0088F84B
:105860000B00C4F81C909DF80B0000F0020060B122
:10587000002600E0761C39F816000028FAD106F15F
:1058800019000D21B0FBF1F700E001273946204651
:10589000FFF788FE054645BB781E070025D0E08847
:1058A000C11B204600F03DF80546F5B9A06901F09E
:1058B0008EFD824600BF2169206801F085FB054608
:1058C00005B111E0FAB253466169E06900F09AFF50
:1058D00001202168087100212046FFF706FF0546D8
:1058E00015B9781E0700E6D100BFC5B92169206847
:1058F00001F06AFB054695B920220021606901F09C
:1059000059FB0B22D4E9050101F047FBA069C07ADD
:1059100000F01800616908730120216808712846A9
:1059200095E72DE9F04104460E46E680A568012D75
:1059300003D020684069A84202D80220BDE8F08167
:105940002DB920680078032801D12068456A45B93F
:1059500020680089B04201D80220EFE72068476A3A
:105960001EE0206880784FEA001812E0294620687F
:1059700001F048F80546681C08B90120DEE7022D51
:1059800003D320684069A84201D80220D6E7A6EBDD
:1059900008064645EAD229462068FFF7B6FB0746C7
:1059A000E5600FB90220C9E707EB161020612068F7
:1059B000303006F00F0100EB411060610020BDE7C0
:1059C00070B5054625B1012D06D0022D0CD10AE097
:1059D000FDF7BAFC044609E0FBF7B8FB4FF4405072
:1059E0000549088002E001E0012400BF00BF0CB1BE
:1059F000012070BD0020FCE72C0000202DE9F041C3
:105A000007460E46144627B1012F1ED0022F39D16A
:105A100037E036B1012E0FD0022E04D0032E10D164
:105A200006E000250FE04FF40070206000250AE03A
:105A300008202080002506E0FDF74AFC20600025B4
:105A400001E0042500BF00BF00BF36B1012E0FD01A
:105A5000022E04D0032E10D106E000250FE04FF4F3
:105A60000070208000250AE008202080002506E044
:105A7000064800882060002501E0042500BF00BF23
:105A800000BF00BF00BF2846BDE8F0812C00002009
:105A90002DE9F04180460F4616461C4614B90420F5
:105AA000BDE8F081B8F1000F06D0B8F1010F15D0B4
:105AB000B8F1020F22D120E0E2B231463846FDF7BC
:105AC00007FD054607E0FDF73FFCE2B231463846E8
:105AD000FDF7FEFC0546002DF5D111E009E071024D
