:020000040800F2
:10000000E0C3002045010008891400089B0E000889
:1000100085140008870200087930000800000000FD
:100020000000000000000000000000001D24000887
:100030008B0200080000000041180008312500086C
:100040005F0100085F0100085F0100085F01000810
:100050005F0100085F0100085F0100085F01000800
:100060005F0100085F0100085F0100085F010008F0
:100070005F0100085F0100085F0100085F010008E0
:100080005F0100085F0100085F0100085F010008D0
:100090005F0100085F0100085F010008910A000885
:1000A0005F0100085F0100085F0100085F010008B0
:1000B0005F0100085F010008B92900085F0100081E
:1000C0005F0100085F0100085F0100085F01000890
:1000D0005F0100086D2B0008612C00085F0100081B
:1000E0005F0100085F0100085F0100085F01000870
:1000F0005F0100085F0100085F0100085F01000860
:100100005F0100085F0100085F0100085F0100084F
:100110005F0100085F0100085F0100085F0100083F
:100120005F0100085F0100085F0100085F0100082F
:10013000DFF80CD000F076F8004800471D540008A6
:10014000E0C300200648804706480047FEE7FEE778
:10015000FEE7FEE7FEE7FEE7FEE7FEE7FEE7FEE777
:100160007125000831010008D2B201E000F8012B2E
:10017000491EFBD270470022F6E710B513460A4627
:1001800004461946FFF7F0FF204610BD30B505467E
:100190002A460B4612F8010B13F8014B08B1A04296
:1001A000F8D01CB1002802D06D1CF1E7284630BD04
:1001B000034611F8012B00F8012B002AF9D118464B
:1001C00070472DE9F05F0546002092469B46884621
:1001D0000646814640241BE02846414647462246C3
:1001E00000F041F853465A46C01A914110D31146C7
:1001F0001846224600F028F82D1A67EB01084F46F2
:1002000022460120002100F01FF817EB00094E41A3
:10021000201EA4F10104DFDC484631462A4643464D
:10022000BDE8F09F064C074D06E0E06840F0010392
:1002300094E8070098471034AC42F6D3FFF77CFFF0
:100240001828030838280308202A04DB203A00FA7B
:1002500002F1002070479140C2F1200320FA03F31D
:10026000194390407047202A04DB203A21FA02F01B
:100270000021704721FA02F3D040C2F120029140E0
:1002800008431946704700BFFEE7704710B50446A3
:10029000214610A002F0F2FE240300F043F900F022
:1002A000DBF800200D490860202002F04FF8C4F36D
:1002B000074002F04BF8C4F3072002F047F8E0B221
:1002C00002F044F801200649C1F8B40100F0C4F876
:1002D00010BD000066653A25780D0A00B40124427D
:1002E0000000244208B501214FF4C47001F07AFBEC
:1002F0004FF40050ADF8000010208DF803000320EB
:100300008DF8020069461E4800F038FD4FF4005198
:100310001B4800F0C0FD4FF48040ADF80000694676
:10032000174800F02BFD4FF48041154800F0B3FD55
:100330004FF48050ADF8000010208DF8030069469E
:10034000104800F01BFD4FF480510E4800F0A3FD53
:100350004FF40070ADF8000069460B4800F00EFD48
:100360004FF40071084800F096FD0120074908602D
:1003700001F0A6FF00F036F80549088008BD00002E
:1003800000200140000C0140001C0140B401244247
:10039000240000202DE9F04106460C4617460020B7
:1003A0000F490860032001F0D1FFC4F3074001F0BA
:1003B000CDFFC4F3072001F0C9FFE0B201F0C6FF92
:1003C000002505E0FF2001F0C1FF7055681C85B2D3
:1003D000BD42F7DB012002490860BDE8F081000062
:1003E000B401244210B5002400200E49086090207A
:1003F00001F0ACFF002001F0A9FF002001F0A6FFF2
:10040000002001F0A3FFFF2001F0A0FF44EA002438
:10041000FF2001F09BFF044301200349C1F8B40110
:10042000204610BDB40124420000244210B500242F
:10043000002007490860052001F088FFFF2001F037
:1004400085FF044601200349C1F8B401204610BDD0
:10045000B40124420000244210B500BFFFF7E6FFBC
:1004600000F001000028F9D110BD00002DE9F05F77
:1004700081460F461646DFF8A8B04FEA1738C7F393
:100480000B0ACAF58054A64200DC344644E04FEA29
:1004900008314FF480525846FFF77CFF002508E0F2
:1004A0000AEB05001BF80000FF2800D003E0681CE1
:1004B00085B2A542F4DB00BFA54216DA4046FFF73D
:1004C000E5FE002507E019F8050005EB0A010BF829
:1004D0000100681C85B2A542F5DB4FEA08314FF4F4
:1004E0008052584600F02EF804E02246394648462D
:1004F00000F028F8A64200D10FE008F101084FF003
:10050000000AA1442744301B86B2B6F5805F02DDA5
:100510004FF4805400E03446B9E700BFBDE8F09FD7
:100520006400002010B5002004490860062001F096
:100530000DFF01200249C1F8B40110BDB4012442ED
:10054000000024422DE9F04107460E461446F0B261
:10055000C0F58075AC4200DC254612E02A463146E3
:10056000384600F013F8AC4200D10BE02F442E4483
:10057000601B84B2B4F5807F02DD4FF4807500E02B
:100580002546EBE700BFBDE8F08100002DE9F04112
:1005900006460C461746FFF7C5FF00200F490860C6
:1005A000022001F0D3FEC4F3074001F0CFFEC4F3F4
:1005B000072001F0CBFEE0B201F0C8FE002504E008
:1005C000705D01F0C3FE681C85B2BD42F8DB0120FE
:1005D00002490860FFF740FFBDE8F081B401244202
:1005E00010B5002440210C4800F055FC4FF47A70FF
:1005F00003F0B6FB0CE04FF4FA73002207A108A049
:1006000000F0C4F900B110BD00F024F9601CC4B2C0
:100610000A2CF0DB00BFF6E7001801404F4B00004A
:100620004154000010B540F2DC53002217A118A07D
:1006300000F0ACF9B8B100BF1648B0F800046FF391
:100640000E001449A1F800044FF480611148FFF72F
:1006500092FD40F6C41310A20CA111A000F096F96F
:100660000446002CE8D018A002F008FD4FF44873AF
:10067000002206A11AA000F089F94FF4FA731CA217
:100680001CA11DA000F082F910BD00004F4B00001E
:100690004154000064100020414C5245414459002F
:1006A00041542B43495053544152543D22544350DA
:1006B000222C223139322E3136382E34332E31333A
:1006C00037222C3830383000416C726561647920F3
:1006D000436F6E6E6563746564210D0A000000004F
:1006E00041542B4349504D4F44453D3100000000DB
:1006F0003E0000000D0A000041542B434950534571
:100700004E44000010B586B004460CB1012000E054
:100710000020024606A101A802F0C0FC4FF4FA73C3
:10072000002207A101A800F031F906B010BD0000B9
:1007300041542B4349504D55583D2564000000005D
:100740004F4B000038B5044601214FF4A07001F072
:1007500049F94020ADF8000010208DF80300032077
:100760008DF8020069460B4800F008FB8020ADF8C8
:1007700000006946084800F001FB204602F0C0FA7C
:100780004021044800F087FB8021034800F081FBF2
:1007900038BD0000001801400020014030B59FB076
:1007A00004460D462B46224606A101A802F076FC1F
:1007B00041F28833002208A101A800F0E7F81FB039
:1007C00030BD000041542B43574A41503D22257310
:1007D000222C2225732200004F4B000010B5044646
:1007E00024B1012C0AD0022C18D10FE040F6C4131A
:1007F0000BA20EA10EA000F0C9F810BD40F6C41364
:1008000007A20AA10DA000F0C1F8F6E740F6C41354
:1008100003A206A10CA000F0B9F8EEE70020ECE777
:100820006E6F206368616E67650000004F4B0000CB
:1008300041542B43574D4F44453D310041542B43C8
:10084000574D4F44453D320041542B43574D4F4483
:10085000453D330010B54021054800F01AFB4FF428
:10086000FA7003F07DFA4021014800F014FB10BD3E
:100870000018014010B50DA002F000FC80211048C6
:1008800000F009FBFFF7ACFE0020FFF7A7FF00BF59
:100890000CA10FA0FFF782FF0028F9D00020FFF77E
:1008A00031FF0EA002F0EAFB10BD00000D0AD5FDDD
:1008B000D4DAC1ACBDD341502E2E2E0D0A0000005B
:1008C00000200140787A6D3131313738390000002D
:1008D0004855415745492050333000000D0AC1ACFE
:1008E000BDD34150B3C9B9A6210D0A002DE9F0418D
:1008F00086B007460C4615461E464FF000083FB12D
:10090000224614A1144802F034FB4FF001081CE009
:10091000052E06DAAB1C324610A101A802F0BEFB80
:1009200004E0AA1C12A101A802F0B8FB4FF47A73EC
:10093000002213A101A800F029F84FF47A730022D5
:1009400010A1204600F022F88046404606B0BDE8DF
:10095000F0810000257300000044004041542B4307
:10096000495053454E443D25642C25640000000049
:1009700041542B43495053454E443D2564000000EB
:100980003E20000053454E44204F4B002DE9F041DE
:1009900006460C4615461F462548B0F800046FF37E
:1009A0000E002349A1F80004324622A1234802F098
:1009B000E0FA1CB915B90120BDE8F081B8B203F026
:1009C000CFF900201A49B1F80014C1F30E01184AFA
:1009D000505411461AA002F051FBB4B1ADB12146FA
:1009E0001348FFF7D3FB08B1012000E0002040B915
:1009F00029460F48FFF7CAFB08B1012000E000209C
:100A000008B10120D8E70020D6E744B121460848C4
:100A1000FFF7BCFB08B10120CEE70020CCE7294658
:100A20000348FFF7B3FB08B10120C5E70020C3E787
:100A30006410002025730D0A0000000000440040EF
:100A4000257300000EB50121084600F0CBFF0721F9
:100A5000002000F073F98020019000208DF808003C
:100A600008208DF8090001208DF80A0001A800F087
:100A70004BF817208DF8000000208DF801008DF84C
:100A8000020001208DF80300684600F0FFFC0EBD57
:100A900010B5802000F024F801280ED1002009496B
:100AA000086001200849C1F898010849C1F8980177
:100AB00007480078401C06490870802000F00AF8BA
:100AC00010BD000098012342000023420080214213
:100AD0002100002001490860704700001404014013
:100AE000014600200022074B1B6803EA0102054B68
:100AF00014331B680B4013B10AB1012000E0002041
:100B00007047000000040140002123498279002A37
:100B10003AD00A46126803689A430B461A600A1DC7
:100B2000126803689A430B1D1A60027911440A681F
:100B300003681A430A60184A0832126803689A4325
:100B4000154B08331A601A1D126803689A43124B3A
:100B50000C331A604279102A0ED11A1F12680368EA
:100B60001A430D4B08331A601A1D126803681A43A2
:100B7000094B0C331A600DE00749427911440A68A9
:100B800003681A430A6005E0027911440A680368A1
:100B90009A430A60704700000004014010B5002429
:100BA0000EE04FF40C71002005F00CF8184941F8E4
:100BB0002400084650F8240000B903E0601CC4B2C9
:100BC000032CEEDB00BF4FF40A71002004F0FAFFA3
:100BD000104908604FF40A71002004F0F3FF0E4939
:100BE00008604FF40071002004F0ECFF0B4908602E
:100BF000032C0AD10748006838B10748006820B1C3
:100C00000846006808B1002010BD0120FCE7000084
:100C10007414002030000020340000204000002028
:100C200051B18200A2F1C042126842F00103820079
:100C3000A2F1C042136009E08200A2F1C042126832
:100C4000034B1A408300A3F1C0431A6070470000B1
:100C5000FEFF0F00D0E901121143C268114302697F
:100C600011434269114382691143C2691143026A07
:100C70001143426A1143826A1143C26A1143026BF3
:100C8000114302689200A2F1C042116081680829F4
:100C90000BD101688900A1F1C041096841F040020F
:100CA00001688900A1F1C0410A60416B0968426B8B
:100CB000526841EA0211426B926841EA0221426B9A
:100CC000928941EA0241426B128A41EA0251426B27
:100CD000127D41EA0261426B926911430268521C23
:100CE0009200A2F1C0421160C16AB1F5804F1BD1E0
:100CF000816B0968826B526841EA0211826B9268CB
:100D000041EA0221826B128A41EA0251826B127D12
:100D100041EA0261826B9269114302689200A2F17A
:100D2000C042C2F8041107E06FF070420168890008
:100D3000A1F1C041C1F804217047000030B5002284
:100D40008B071C0F0F2303FA04F20B4B8C1053F884
:100D500024309343084C8D1044F8253023468C10E2
:100D600053F824308C07240F00FA04F42343024C78
:100D70008D1044F8253030BD080001402DE9F041C8
:100D8000024600250026002000230024002791F8B9
:100D900003C00CF00F0591F803C00CF0100CBCF16F
:100DA000000F03D091F802C04CEA050591F800C08D
:100DB000BCF1000F31D0146800202BE04FF0010C83
:100DC0000CFA00F3B1F800C00CEA03069E4220D1F1
:100DD00083004FF00F0C0CFA03F7BC4305FA03FC39
:100DE0004CEA040491F803C0BCF1280F06D14FF07F
:100DF000010C0CFA00FCC2F814C00AE091F803C020
:100E0000BCF1480F05D14FF0010C0CFA00FCC2F800
:100E100010C0401C0828D1D31460B1F800C0BCF148
:100E2000FF0F34DD546800202EE000F1080C4FF075
:100E3000010808FA0CF3B1F800C00CEA03069E4260
:100E400021D183004FF00F0C0CFA03F7BC4305FAD5
:100E500003FC4CEA040491F803C0BCF1280F05D14F
:100E600000F1080C08FA0CF8C2F8148091F803C0DD
:100E7000BCF1480F07D100F1080C4FF0010808FA47
:100E80000CF8C2F81080401C0828CED35460BDE88E
:100E9000F081416170470161704700BFFEE70000CB
:100EA00008B50121442000F09DFD0120ADF80000AF
:100EB00028208DF8030003208DF8020069460848B9
:100EC000FFF75CFF1C20ADF8000048208DF8030000
:100ED00003208DF8020069460248FFF74FFF08BD66
:100EE000000801400018014010B50446224800786F
:100EF000012826D12148006801280AD0204800682E
:100F000038B11F48001F006818B11D48001D006857
:100F1000B8B90A2002F024FF0020174908701748CA
:100F20000068012800D110BD1548006808B90220EA
:100F3000F9E71348001F006808B90320F3E704200D
:100F4000F1E70E48006878B90D48006801280BD118
:100F50000B48001F0068012806D10948001D0068E1
:100F6000012801D104490870012C02D10120024955
:100F700008700020D7E70000200000200001214277
:100F80000C01234270B506460F484088401E83B2CC
:100F90000D480088401E82B20021084600F0B4F8D7
:100FA00000240CE0002504E0304600F04BFA681CF9
:100FB00085B205484088A842F6DC601C84B202482D
:100FC0000088A042EEDC70BD1800002000B502468B
:100FD000B2B9012000F02AFA4FF4807000F02CFA28
:100FE000032000F023FA41F2300000F025FA4FF41C
:100FF000C8700E494880F02008800020887114E0F5
:10100000012000F013FA002000F016FA032000F08F
:101010000DFA41F2380000F00FFAF0200349488041
:101020004FF4C87008800120887100BD18000020AE
:1010300070B504460D4616462B46224629462046E4
:1010400000F062F8304600F0FDF970BD2DE9F04384
:1010500004460D4616461F46DDF81C80B44201DCEE
:10106000BD4201DDBDE8F0833B46324629462046BD
:1010700000F04AF8301B401C84B2781B401C85B23B
:101080000BE0A94602E0404600F0DCF95FEA090007
:10109000A9F101011FFA81F9F5D12000A4F10101A4
:1010A0008CB2EED100BFDDE7014800887047000038
:1010B0000008006C2DE9F04104460D46002600278B
:1010C000B04610480088A04203DD0E484088A84280
:1010D00002DC0020BDE8F0812B462246294620464E
:1010E00000F012F840F2022000F0A0F9FFF7DCFF58
:1010F0000646FFF7D9FF0646FFF7D6FF06463046FD
:10110000E8E700001800002030B505460C462E48E0
:10111000807950BB4FF4047000F088F9284600F045
:101120008BF940F2112000F081F9104600F084F9AB
:1011300040F2122000F07AF9204600F07DF940F2EA
:10114000132000F073F9184600F076F94FF40070A0
:1011500000F06CF9284600F06FF940F2012000F031
:1011600065F9204600F068F929E040F2122000F00D
:101170005DF9284600F060F940F2132000F056F9BE
:10118000104600F059F94FF4047000F04FF9204672
:1011900000F052F940F2112000F048F9184600F032
:1011A0004BF940F2012000F041F9284600F044F9E3
:1011B0004FF4007000F03AF9204600F03DF940F29B
:1011C000022000F033F930BD180000202DE9F84F5F
:1011D00080460D4617461C46AB462046E31704EBF7
:1011E0005373DB1021464FEAE47C04EB5C7C4FEA4E
:1011F000EC0CA4EBCC0CBCF1000F02D04FF0010CB6
:1012000001E04FF0000C6344224604EBD27C4FEA2D
:101210006C0C03FB0CF3DBB20093A7F12000C7B208
:1012200000264CE0102C05D1274800EB071010F8E1
:1012300006900BE0182C07D107EBC700234901EB00
:10124000800010F8069001E0BDE8F88F4FF0000A2A
:101250002FE009F0800030B11D4802882946404641
:10126000FFF7E6FE07E00A9828B91A4802882946DF
:101270004046FFF7DDFE4FEA49604FEA1069681CFF
:1012800085B215484088A84200DCDDE7A5EB0B00DD
:10129000A0420AD15D4608F101001FFA80F80E480D
:1012A0000088404500DCCFE706E00AF1010000F0CD
:1012B000FF0ABAF1080FCCDB00BF701CC6B2009861
:1012C0008642AFDB00BFBFE7325F0008226500083F
:1012D0001400002016000020180000202DE9F84F0F
:1012E00004460F461546A346009760E0002657E0E7
:1012F00006EB8600C0EB86102F4911F81000297804
:1013000088424BD106EB8600C0EB86102A4901EBE0
:10131000400040786978884240D14FF000083AE0B8
:1013200006EB8600C0EB8610234901EB4000801CD1
:1013300010F808A04FF0000926E00AF0800080288D
:1013400006D11E48028839462046FFF771FE05E0A7
:101350001B48028839462046FFF76AFE4FF6FF70A9
:1013600000EA4A0A601C84B2A4EB0B00202807D1D3
:101370005C46781C87B20098381A1D2800D1009F5F
:1013800009F1010000F0FF09B9F1080FD5DB08F100
:10139000010000F0FF08B8F1740FC1DB701CC6B289
:1013A000142EA5DBAD1C04F1200084B2A3462878DE
:1013B00000289BD1BDE8F88F7E7200081400002041
:1013C000160000202DE9F84704460D469046994640
:1013D000DDE9096704F0FF0A08EB04001FFA80F852
:1013E00009EB05001FFA80F916E0444502DB54467C
:1013F000A81985B24D4500DB14E0002000903A7832
:10140000334629462046FFF7E1FE304606EBD07111
:1014100004EB61018CB27F1C38787E2802DC3878BE
:101420002028E2DA00BFBDE8F88700000149088003
:1014300070470000FE07006C0149088070470000FB
:101440000008006C01490880704700000008006C2B
:1014500008B50121102000F0C5FAFF20ADF800000A
:1014600010208DF8030003208DF80200694604481F
:10147000FFF784FCFF210248FFF70DFD08BD0000C7
:101480000010014000BFFEE77047000070B500216A
:1014900000230F22C47804B3154C246804F4E064DC
:1014A000C4F5E064210AC1F10403CA40447804FA97
:1014B00003F184781440214309010E4C0678A155AC
:1014C000047804F01F050124AC4005786D11AD00CF
:1014D00005F1E025C5F8004109E0047804F01F0596
:1014E0000124AC40044D0678761145F8264070BDC5
:1014F0000CED00E000E400E080E100E0024901437F
:10150000024A1160704700000000FA050CED00E08F
:1015100070B50446002534B1012C06D0032C06D04A
:10152000042C08D105E0B02505E0982503E0182536
:1015300001E0302500BF00BF2946552000F0F8FB30
:1015400070BD2DE9F0410446802522265E2734B186
:10155000012C08D0032C0AD0042C10D10BE040251C
:1015600011262F270BE066251B264B2707E0992520
:101570002826712703E0C02533268D2700BF00BF32
:1015800029464F2000F0D4FB2946502000F0D0FB24
:101590000021512000F0CCFB3146522000F0C8FB66
:1015A0003946532000F0C4FB2946542000F0C0FB0C
:1015B0009E21582000F0BCFBBDE8F08170B50446C8
:1015C000402534B1012C06D0032C06D0042C08D1C0
:1015D00005E0302505E0382503E0502501E06025D1
:1015E00000BF00BF2946562000F0A2FB70BD0000DE
:1015F00038B500250121DC2000F0F4F948208DF8F1
:1016000003008020ADF8000003208DF80200694639
:101610003148FFF7B3FB10208DF80300C020ADF870
:10162000000069462D48FFF7A9FBC0212B48FFF7B2
:1016300032FC48208DF80300FF20ADF80000694619
:101640002748FFF79BFB10208DF803004020ADF8E2
:10165000000069462348FFF791FB40212148FFF72E
:101660001AFC0C20ADF8000010208DF8030069462C
:101670001D48FFF783FB0C211B48FFF70CFC00F013
:101680002BFA8021122000F053FB08B1012038BD55
:10169000322002F065FB0B2000F08CFA0446732C1C
:1016A00001D00220F3E70A2000F084FA0446762CE9
:1016B00001D00220EBE700250AE00C4A02EB4502CC
:1016C00051780A4A12F8150000F032FB681C85B206
:1016D000A82DF2D30020DAE700080140000C0140F9
:1016E000001C01400018014000100140CC740008AB
:1016F0002DE9F0410446E72500260027012C06D0FD
:10170000022C08D0032C0AD0042C10D10BE0E525C4
:101710005A265C270BE0E5255826602707E0E525DB
:1017200084264C2703E0E5259626402700BF00BF0E
:101730002946132000F0FCFA3146012000F0F8FAA7
:101740003946022000F0F4FABDE8F0812DE9F041BD
:1017500004460425C0268027072C1DD2DFE804F0AC
:101760001C04080C1014180024258026802713E080
:101770001425802680270FE01425C02680270BE043
:1017800014254026402707E014258026C02703E0C3
:101790001425A026402700BF00BF29463A2000F0AC
:1017A000C7FA3146682000F0C3FA3946672000F0D6
:1017B000BFFABDE8F0812DE9F04705460E46904698
:1017C000994605EB48001FFA80FA06EB490087B2FC
:1017D000B7F5447F02DDA7F5447087B2032000F01F
:1017E000E9F9044604F0F0040AF00301284661F325
:1017F0009F0004432146032000F09AFAC5F38701B5
:10180000192000F095FACAF387011A2000F090FA27
:10181000322000F0CFF9044604F0C00407F00701BD
:10182000304661F3DF000443C6F3C701172000F020
:101830007FFAC7F3C701182000F07AFABDE8F087F5
:1018400070470000F0B5ADF2244D07460C463DA0B0
:1018500001F014FC112239463D48006802F0C8FE30
:10186000064638A1701801F009FC002E4DD1394808
:10187000B0F800046FF30E003649A1F80004052308
:10188000002235490120FFF731F8344A34A10DF226
:10189000044001F003FC052300220DF20441012065
:1018A000FFF724F80523002233490120FFF71EF833
:1018B00042203249088020E06B464FF4806201A943
:1018C0002348006802F05FFF064600250CE001A8EF
:1018D000405D2A49088000BF2848001F008800F0AA
:1018E00040000028F8D06D1C00988542EFD31EB947
:1018F0000098B0F5806F00D200E0DDE700BF05235F
:1019000000221FA10120FEF7F1FF23A001F0B6FB8A
:101910004FF47A7002F024FA00200E49B1F8001456
:10192000C1F30E010B4A505402F1B3012046FEF7F9
:101930003FFC002060720648006802F05CFD0DF27A
:10194000244DF0BD787A6D5F706F696E7400000091
:101950003400002064100020A0270308545902001E
:10196000436F6E74656E742D4C656E6774683A25AE
:10197000640D0A0D0A0000003027030804440040EB
:101980000D0A2D2D2D2D787A6D31323334353637C1
:1019900038392D2D0D0A0000787A6D5F706F696EF1
:1019A0007432000029B1064A52690243044B5A615D
:1019B00004E0034A52698243014B5A6170470000B8
:1019C0000010024029B1064AD2690243044BDA6191
:1019D00004E0034AD2698243014BDA617047000098
:1019E0000010024029B1064A92690243044B9A61F1
:1019F00004E0034A92698243014B9A6170470000F8
:101A00000010024030B500210022002400232D4D9B
:101A10006D6805F00C0121B1042905D0082923D1F6
:101A200005E0294D056022E0274D05601FE0254DAA
:101A30006D6805F47012234D6D6805F4803402253D
:101A400005EB92421CB9214D554305600BE01D4D3D
:101A50006D6805F400351DB11C4D5543056002E06D
:101A6000194D5543056002E0174D056000BF00BFEA
:101A7000144D6D6805F0F0010909154D6B5C0568A2
:101A8000DD4045600F4D6D6805F4E061090A104DB9
:101A90006B5C4568DD4085600A4D6D6805F46051FA
:101AA000C90A0B4D6B5C4568DD40C560054D6D682E
:101AB00005F44041890B074D6B5CC568B5FBF3F538
:101AC000056130BD0010024000127A0000093D009F
:101AD000000000201000002008B501211020FFF7B1
:101AE00081FF4020ADF8000048208DF8030003205E
:101AF0008DF8020069460B48FFF740F9402109487C
:101B0000FFF7C9F91020ADF800008DF80300694611
:101B10000448FFF733F910210248FFF7BCF900F041
:101B20007FF808BD0010014010B5322002F03EF9E8
:101B300001200B4908600B49C1F89001322002F0E6
:101B400035F90020064908390860322002F02EF9E4
:101B500000200449C1F89801322002F027F910BD95
:101B6000980122420000224270B5002400F04AF899
:101B7000082515E0322002F019F901200B49086010
:101B80006006040E0A48D0F8180108B1601CC4B2FF
:101B9000322002F00BF9002004490860681EC5B22B
:101BA000002DE7DC00F03CF8204670BD9001224299
:101BB0000000224270B50446002500F043F84220A0
:101BC00000F074F8642002F0F1F8204600F06EF89E
:101BD000642002F0EBF800F04FF8642002F0E6F821
:101BE00000F030F8432000F061F8642002F0DEF8E5
:101BF000FFF7BAFF0546FFF797FF00F03DF82846CC
:101C000070BD000008B54020ADF8000048208DF8F8
:101C1000030069460148FFF7B1F808BD0010014014
:101C200008B54020ADF8000010208DF80300032017
:101C30008DF8020069460248FFF7A0F808BD0000D1
:101C40000010014010B50120094908600949C1F898
:101C50009001322002F0AAF80020054908603220E5
:101C600002F0A4F800200349C1F8900110BD000063
:101C7000980122420000224210B500200949086064
:101C8000322002F093F801200749C1F89001322078
:101C900002F08CF8012003490860322002F086F837
:101CA00010BD0000980122420000224270B5044697
:101CB00000261BE004F0800018B101201A490860DA
:101CC00002E00020184908606006040E322002F08D
:101CD0006DF80120144908390860322002F066F8D6
:101CE00000201249C1F89001701CC6B2082EE1DB39
:101CF000FFF788FF322002F059F801200A4908391D
:101D00000860322002F052F80848D0F8180108B1F3
:101D1000012500E000250020034908390860FFF78D
:101D20007FFF284670BD0000980122420000224239
:101D300070B505460C460026FFF784FF4220FFF7EA
:101D4000B5FF00B10126642002F030F82846FFF705
:101D5000ADFF00B10126642002F028F82046FFF70D
:101D6000A5FF00B10126FFF787FF304670BD0000D8
:101D700010B5012002490860FF2000F0C3F910BD32
:101D8000B801244270B5054601220021092000F067
:101D900002FA044624B91021284600F055F90446F9
:101DA000FFF7E6FF0CB1012070BD0020FCE770B525
:101DB00005464FF6FF7401E0601E84B2FF2000F07C
:101DC000A1F9A84201D0002CF6D10CB9FF2070BDBA
:101DD0000020FCE77FB56846FFF7D4FF10B1002074
:101DE00004B070BD9DF8000000F0C000402809D18B
:101DF0009DF809009DF8081000EB0120401C84B2FA
:101E0000A50220E09DF8050000F00F009DF80A10E3
:101E100000EBD1109DF8091001F0030100EB410027
:101E2000861C9DF8080080119DF8071000EB8100CA
:101E30009DF8061001F0030100EB8120441CA6F17F
:101E4000090004FA00F52846CAE70000F8B500F0DA
:101E500017F900F062F9002504E0FF2000F052F9C4
:101E6000681C85B20A2DF8DB142600BF95220021DC
:101E7000084600F090F90446012C04D03000A6F189
:101E800001018EB2F2D1002051490870012C4AD1D3
:101E900087224FF4D571082000F07DF9012847D141
:101EA000002506E0FF2000F02DF90DF80500681C64
:101EB00085B2042DF6DB9DF80200012879D19DF84A
:101EC0000300AA2875D14FF6FE7600BF012200213B
:101ED000372000F060F901229107292000F05BF91A
:101EE000044624B13000A6F101018EB2EED1002EDD
:101EF0005FD0012200213A2000F04DF9002858D18E
:101F0000002506E0FF2000F0FDF80DF80500681C34
:101F100085B2042DF6DB9DF8000000F0400018B1FA
:101F200006202B49087044E004202949087040E04D
:101F300001220021372000F02EF901220021292062
:101F400000F029F90446012C17DC02202049087012
:101F50004FF6FE7600BF01220021372000F01BF96A
:101F600001220021292000F016F90446BCB13000FE
:101F7000A6F101018EB2EED111E0012014490870E2
:101F80004FF6FE7600BF01220021104600F003F953
:101F9000044624B13000A6F101018EB2F3D12EB176
:101FA00001225102102000F0F6F810B1002008497B
:101FB0000870FFF7DDFE00F0ABF80548007808B1C7
:101FC0000020F8BD0CB12046FBE7AA20F9E700008D
:101FD000230000202DE9F04106460F46154619481A
:101FE0000078062800D07F02012D0CD1012239464D
:101FF000112000F0D0F80446FCB96902304600F028
:1020000023F8044619E001223946122000F0C3F8F3
:10201000044600BF4FF40071304600F015F8044646
:1020200006F50076681EC0B2050001D0002CF1D084
:10203000012200210C2000F0AEF8FFF799FE2046A7
:10204000BDE8F0812300002070B504460D46FE2057
:10205000FFF7ADFE08B1012070BD04E0FF2000F0E5
:1020600075F92070641C2800A5F101018DB2F5D12D
:10207000FF2000F047F8FF2000F044F80020EBE7D5
:1020800008B501214FF4C470FFF7ACFC4FF4805049
:10209000ADF8000010208DF8030003208DF8020039
:1020A00069461448FEF76AFE4FF480511148FEF766
:1020B000F2FE4FF40070ADF8000069460E48FEF7DE
:1020C0005DFE4FF400710C48FEF7E5FE4FF4C04092
:1020D000ADF8000069460948FEF750FE4FF4005184
:1020E0000648FEF7D8FE00F0EBF80120044908602E
:1020F00008BD0000000C0140001C01400020014010
:10210000B801244210B50446204600F01FF910BD66
:1021100010B5002000F036F910BD10B5382000F0E1
:1021200031F910BD10B500200549086000F06FF8C6
:1021300008B9002010BDFFF71BFE0120FAE70000E0
:10214000B801244270B506460D4600F060F808B1AB
:10215000012070BD2846FFF7D5FFFD2D19D00024C2
:1021600004E0305D00F0F2F8601C84B2B4F5007F4A
:10217000F7DBFF20FFF7C6FFFF20FFF7C3FFFF20BD
:10218000FFF7C0FF044604F01F00052801D002201D
:10219000DFE70020DDE72DE9F04105460C46174654
:1021A0004FF00008FFF7E4FDFFF7BCFF10B1FF2080
:1021B000BDE8F08145F04000FFF7A4FF200EFFF7D7
:1021C000A1FFC4F30740FFF79DFFC4F30720FFF70B
:1021D00099FFE0B2FFF796FF3846FFF793FF0C2D0B
:1021E00002D1FF20FFF78EFF4FF01F0800BFFF2036
:1021F000FFF788FF064606F0800030B15FEA08006E
:10220000A8F1010101F0FF08F1D13046D0E710B587
:10221000002400BFFF20FFF775FFFF2801D1002039
:1022200010BD641C6FF07F408442F3D30120F7E7B8
:102230002DE9F04106460F4615462048007806284D
:1022400000D07F02012D0CD1012239461820FFF762
:10225000A2FF04466CBBFE213046FFF773FF044625
:1022600027E016480078012809D0012200213720F4
:10227000FFF791FF012229461720FFF78CFF01226B
:1022800039461920FFF787FF044694B900BFFC21A7
:102290003046FFF757FF044606F50076681EC0B2C9
:1022A000050001D0002CF2D0FD210020FFF74AFFED
:1022B0000446FFF75DFD2046BDE8F08123000020C5
:1022C00000B587B001210820FFF78CFB01218803AE
:1022D000FFF778FB4FF46040ADF8180018208DF838
:1022E0001B0003208DF81A0006A91648FEF746FDCC
:1022F0000020ADF804004FF48270ADF80600002015
:10230000ADF808000220ADF80A000120ADF80C007D
:102310004002ADF80E003820ADF810000020ADF8F6
:1023200012000720ADF8140001A9074800F058F882
:102330000121054800F03AF8FF2000F007F807B047
:1023400000BD0000000C01400038004010B50446FC
:1023500000BF02210A4800F035F80028F9D02146D4
:10236000074800F03BF800BF0121054800F02AF8BB
:102370000028F9D0024800F02EF8C0B210BD0000CD
:102380000038004010B50446074800884FF6C77172
:10239000084005490880084600882043088001213C
:1023A000014800F003F810BD0038004021B1028858
:1023B00042F04002028004E002884FF6BF731A40E8
:1023C000028070470246002013890B400BB10120A8
:1023D00000E000207047014688897047818170477E
:1023E00010B50022028802F441520B884C88234326
:1023F0008C882343CC8823430C8923434C89234373
:102400008C892343CC8923431A430280838B4FF268
:10241000FF74234083830B8A038210BD704710B57D
:1024200000F002F810BD00000CB5002001900090F3
:102430003348006840F480303149086000BF3048BC
:10244000006800F4003000900198401C0190009852
:1024500018B90198B0F5A06FF1D12948006800F4CF
:10246000003010B10120009001E0002000900098A1
:10247000012843D12348006840F01000214908603A
:102480000846006820F0030008600846006840F035
:10249000020008601A4840681949486008464068C8
:1024A00048600846406840F48060486008464068DC
:1024B00020F47C1048600846406840F4E81048600A
:1024C0000846006840F08070086000BF0C48006853
:1024D00000F000700028F9D00948406820F003009F
:1024E000074948600846406840F00200486000BF65
:1024F0000348406800F00C000828F9D10CBD00002A
:102500000010024000200240042808D14FF0E021D2
:10251000096941F004014FF0E022116107E04FF03A
:10252000E021096921F004014FF0E02211617047B8
:102530007047000010B504466FF00400FFF7E4FF99
:10254000E11704EB5171C1F3C701074A117010463E
:10255000007800EB4001C1EBC0104FF6FF7101EABB
:10256000C0000249088010BD280000202A00002079
:1025700010B51348006840F0010011490860084692
:102580004068104908400E494860084600680E49F6
:1025900008400B4908600846006820F48020086065
:1025A0000846406820F4FE0048604FF41F00886031
:1025B000FFF735FF4FF000600449086010BD0000D0
:1025C000001002400000FFF8FFFFF6FE08ED00E0FB
:1025D00000B59DB001210802FFF7E4F90120079042
:1025E000002008900F20099000200A900B900C907A
:1025F0000D9015200090019005200290002003907E
:1026000004900590069006200E9000200F901090E8
:102610001020119000201290149013901590169095
:102620004FF480501790002018904FF4804019907C
:1026300000201A9007A81B90CDF870D00EA8FEF7C6
:1026400009FB01210620FEF7EBFA1DB000BD0000DA
:1026500008B501214FF4B070FFF7C4F94CF23370A4
:10266000ADF8000018208DF8030003208DF802005B
:1026700069461048FEF782FB4FF68070ADF8000007
:1026800018208DF8030003208DF8020069460A48DF
:10269000FEF774FB41F20100ADF8000018208DF840
:1026A000030003208DF8020069460448FEF766FB2C
:1026B00008BD000000140140001801400020014046
:1026C00010B5FFF7C5FFFFF783FF322001F048FB8D
:1026D0000020FEF7ABFEFEF7E7FCB2498880084613
:1026E0008188B1A000F0CAFC0020FEF79FFE002008
:1026F000FEF79CFE0A2001F033FB0020FEF796FE59
:102700000020FEF793FE0020FEF790FE0020FEF76B
:102710008DFE0020FEF78AFE0020FEF787FE0020D7
:10272000FEF784FE0020FEF781FE0A2001F018FB70
:102730004FF48060FEF77AFE4FF4C440FEF77CFE53
:102740000820FEF773FE40F60800FEF775FE4FF412
:102750004070FEF76BFE0520FEF76EFE40F2013082
:10276000FEF764FE44F60640FEF766FE40F20230D5
:10277000FEF75CFE40F20260FEF75EFE40F20330C0
:10278000FEF754FE40F20C50FEF756FE4FF4417037
:10279000FEF74CFE4FF44C50FEF74EFE40F2053073
:1027A000FEF744FE40F60540FEF746FE40F20630D6
:1027B000FEF73CFE44F20620FEF73EFE40F20730F4
:1027C000FEF734FE40F20C60FEF736FE4FF4427026
:1027D000FEF72CFE4FF4A060FEF72EFE40F209300B
:1027E000FEF724FE3320FEF727FE1020FEF71EFE24
:1027F0001420FEF721FE1120FEF718FE40F2011012
:10280000FEF71AFE1220FEF711FE0020FEF714FE5E
:102810001320FEF70BFE0120FEF70EFE4FF4807032
:10282000FEF704FE4FF44C70FEF706FE40F2011076
:10283000FEF7FCFD40F24720FEF7FEFD40F20310DC
:10284000FEF7F4FD4FF48050FEF7F6FD4FF42070D4
:10285000FEF7ECFD4FF45E40FEF7EEFD4FF48170A5
:10286000FEF7E4FD4DF2B010FEF7E6FD0A2001F0A0
:1028700077FA0120FEF7DAFD4FF48070FEF7DCFDF9
:102880000220FEF7D3FD4FF48070FEF7D5FD032044
:10289000FEF7CCFD41F23000FEF7CEFD0920FEF739
:1028A000C5FD0120FEF7C8FD0C20FEF7BFFD00208E
:1028B000FEF7C2FD9020FEF7B9FD4FF40040FEF791
:1028C000BBFD0F20FEF7B2FD0020FEF7B5FD4FF473
:1028D0000470FEF7ABFD0020FEF7AEFD40F21120C4
:1028E000FEF7A4FDEF20FEF7A7FD40F21220FEF751
:1028F0009DFD0020FEF7A0FD40F21320FEF796FD9F
:1029000040F28F10FEF798FD4FF4A060FEF78EFDA9
:102910000020FEF791FD40F20150FEF787FD0020F8
:10292000FEF78AFD40F20250FEF780FD5F20FEF7C1
:1029300083FD40F20140FEF779FD0120FEF77CFDAA
:1029400040F20440FEF772FD0020FEF775FD0A20FC
:1029500001F006FA0720FEF769FD4FF48070FEF7DC
:102960006BFD0A2001F0FCF94FF40070FEF75EFDEC
:102970000020FEF761FD40F20120FEF757FD002028
:10298000FEF75AFD0A2001F0EBF940F20220FEF7B3
:102990004DFD0020FEF71AFB4FF6FF70FEF7F2FA2E
:1029A00010BD000018000020204C43442049443A48
:1029B00025780D0A0000000010B501210C4800F038
:1029C00068F878B10B48006808B9012000E00020E1
:1029D000084908600848017808A000F04FFB002073
:1029E000054908700121024800F044F810BD0000BC
:1029F0000008004084012242220000206672616DBE
:102A0000653A25646670730D0A0000007FB50546BF
:102A10000C4601210420FEF7D5FFADF80850ADF8B3
:102A200004400020ADF80A00ADF8060001A91048E6
:102A300000F04AF8012211460D4800F03BF8012150
:102A40000B4800F017F81E208DF8000002208DF8CA
:102A5000010003208DF8020001208DF80300684674
:102A6000FEF714FD0121024800F007F87FBD0000C9
:102A700000080040CA430282704721B1028842F038
:102A80000102028004E002884FF6FE731A400280C1
:102A9000704730B50246002000230024158A05EA5D
:102AA0000103958905EA010413B10CB1012000E08E
:102AB000002030BD1AB183890B43838102E08389F2
:102AC0008B43838170470000002202881D4B98428F
:102AD0000ED01D4B98420BD0B0F1804F08D01B4B4D
:102AE000984205D01A4B984202D01A4B984204D112
:102AF0004FF68F731A404B881A43174B984207D0F2
:102B0000164B984204D04FF6FF431A40CB881A4325
:102B100002808B8883850B8803850A4B98420BD0F3
:102B2000094B984208D00E4B984205D00D4B984265
:102B300002D00D4B984201D10B7A03860123838288
:102B400070470000002C01400034014000040040A8
:102B500000080040000C004000100040001400403D
:102B600000400140004401400048014010B540F2DF
:102B700025510C4800F038F970B10A4800F0F0F91E
:102B8000C4B22146074800F0F0F900BF40210548D3
:102B900000F01DF90128F9D14021024800F002F9A6
:102BA00010BD00000038014010B586B00446012178
:102BB0000420FEF717FF01218803FEF713FF012110
:102BC0000846FEF70FFF4FF40070ADF81400032025
:102BD0008DF8160018208DF8170005A91E48FEF77D
:102BE000CDF84FF48060ADF8140004208DF8170084
:102BF00005A91948FEF7C2F801940020ADF80800B5
:102C0000ADF80A00ADF80C00ADF810000C20ADF8DE
:102C10000E0001A9114800F037F901210F4800F01A
:102C2000CAF840210D4800F0BDF8012240F22551BC
:102C30000A4800F003F925208DF8000003208DF8E4
:102C400001008DF8020001208DF803006846FEF7B0
:102C50001DFC06B010BD0000000801400038014016
:102C600010B540F22551204800F0BEF8D8B11E48FA
:102C700000F076F9C4B21D48B0F80004C0F30E00AD
:102C800040F2FF3188420EDA1849B1F80014C1F35E
:102C90000E00411C154AB2F8002461F30E021349DC
:102CA000A1F800240C5440F224410F4800F09CF895
:102CB000012817D10D48B0F8000420F4004000F5B9
:102CC00000400A49A1F80004074800F049F9C4B2DD
:102CD00007A10648FDF75AFA08B1012000E00020DC
:102CE0000649087010BD0000004400406410002038
:102CF000434C4F5345440D0A0000000026000020BD
:102D000010B586B0044601214804FEF75BFE0121A0
:102D10000420FEF767FE0420ADF8140003208DF8B0
:102D2000160018208DF8170005A91C48FEF726F894
:102D30000820ADF8140004208DF8170005A91748E5
:102D4000FEF71CF826208DF8000000208DF8010009
:102D50008DF8020001208DF803006846FEF796FB0F
:102D600001940020ADF80800ADF80A00ADF80C00A1
:102D7000ADF810000C20ADF80E0001A9084800F0D5
:102D800083F8012240F22551054800F057F801214F
:102D9000034800F010F806B010BD00000008014024
:102DA0000044004001F40072B2F5007F00D100BF82
:102DB000CA430280704721B1828942F40052828165
:102DC00004E082894DF6FF731A4082817047024603
:102DD0000020B1F5007F00D100BF13880B400BB17C
:102DE000012000E00020704770B502460024002357
:102DF0000025002040F66A16B14200D100BFC1F3A1
:102E0000421501F01F03012606FA03F3012D02D13A
:102E10009689334006E0022D02D1168A334001E044
:102E2000968A33400C12012606FA04F416883440C0
:102E300013B10CB1012000E0002070BDF0B50346D5
:102E4000002400260025002040F66A17B94200D170
:102E500000BF1846C1F3421401F01F06012707FA0C
:102E600006F5012C01D10C3004E0022C01D1103008
:102E700000E014301AB107682F43076002E00768CA
:102E8000AF430760F0BD00002DE9F04786B005466E
:102E90000E460024A24600BFA1460027B08900B11B
:102EA00000BF2F462C8A4CF6FF700440F088044384
:102EB0002C82AC894EF6F3100440B0883189084367
:102EC000718908430443AC81AC8A4FF6FF4004404B
:102ED000B0890443AC8201A8FEF794FD1F488742E5
:102EE00002D1DDF810A001E0DDF80CA0A88900F403
:102EF000004040B10AEBCA0000EB0A1031684900FB
:102F0000B0FBF1F807E00AEBCA0000EB0A103168E9
:102F10008900B0FBF1F86420B8FBF0F0040120094F
:102F2000642101FB1089A88900F4004040B13220DF
:102F300000EBC900B0FBF1F000F00700044308E02B
:102F4000322000EB09106421B0FBF1F000F00F001B
:102F500004432C8106B0BDE8F08700000038014032
:102F600001468888C0F308007047C1F308028280D8
:102F700070470FB470B586B006460CA8019073E098
:102F80000B9800785C281CD10B98401C0B900078A3
:102F90006E2809D072280FD10D213046FFF7E5FFCA
:102FA0000B98401C0B900BE00A213046FFF7DDFF29
:102FB0000B98401C0B9003E00B98401C0B9000BF3B
:102FC0004BE00B980078252840D10B98401C0B90C3
:102FD0000078642818D0732833D1019810C8019064
:102FE0000BE021783046FFF7C0FF00BF802130465C
:102FF000FFF7EDFE0028F9D0641C20780028F0D1FE
:103000000B98401C0B9020E0019820C801900A22E8
:1030100002A9284602F0C0F902AC0BE02178304644
:10302000FFF7A3FF00BF80213046FFF7D0FE002846
:10303000F9D0641C20780028F0D10B98401C0B902C
:1030400003E00B98401C0B9000BF06E00B9810F8B3
:10305000011B0B903046FFF788FF00BF80213046F0
:10306000FFF7B5FE0028F9D00B980078002887D12B
:1030700006B070BC5DF814FB00BFFEE70FB4054B53
:1030800010B503A9044A029800F02CF810BC5DF8B2
:1030900014FB000069510008600000200FB4084BC9
:1030A00010B504A902AA039800F01CF8044602A96E
:1030B000002000F048FA204610BC5DF814FB000028
:1030C0004735000802E008C8121F08C1002AFAD1DB
:1030D00070477047002001E001C1121F002AFBD198
:1030E000704700002DE9FF4F8DB00F4605460026C2
:1030F00006E025280BD0DDE90F1290476D1C761CE9
:1031000028780028F5D111B03046BDE8F08F0024B2
:10311000A246A1460122EC4900E0044315F8013F14
:10312000203B02FA03F00842F7D128782A2810D071
:103130006FF02F022878A0F13001092914D80AEB8A
:103140008A0102EB410144F0020400EB010A6D1C0C
:10315000F0E701CF5FEA000A03D544F40054CAF156
:10316000000A44F002046D1C28782E2817D115F8A7
:10317000010F44F004042A280ED06FF02F022878A3
:10318000A0F1300109290AD809EB890102EB4101BC
:1031900000EB01096D1CF2E757F8049B6D1C2878C1
:1031A0006C280FD006DC4C2817D068280DD06A2870
:1031B00014D104E0742810D07A280FD10DE044F423
:1031C00000140AE044F4801401E044F440146978E7
:1031D000814202D104F580146D1C6D1C2A786E2A80
:1031E0001FD00CDC632A31D004DC002A8BD0582A93
:1031F00011D1A3E0642A68D0692A0CD165E0732A52
:103200002ED004DC6F2A73D0702A04D19BE0752A7B
:103210006FD0782A6ED01046DDE90F129047761CE9
:1032200050E1C4F30250022806D0032809D0042834
:1032300001CF09D0066045E101CFF117C0E9006177
:1032400040E101CF06803DE106703BE117F8040B39
:103250008DF8000000208DF80100EB46012003E00E
:1032600057F804BB4FF0FF3061074FF0000102D464
:103270000DE008F10101884649450FDA8045F8DB89
:103280001BF808100029F4D108E008F10101884674
:103290008142FADB1BF808100029F6D1DDE90F2383
:1032A000AAEB08008146214600F036F9304400EBD5
:1032B000080604E0DDE90F121BF8010B9047B8F196
:1032C0000108F7D221464846F7E00A21C4F3025329
:1032D0004FF0000B0891022B04D001CFC117032B34
:1032E00009D00AE0FF1D27F00707F7E8020108E010
:1032F00032E01FE020E000B2C117042B01D140B240
:10330000C117031E71F1000307DA4FF0000CD0EB78
:103310000C006CEB01012D2302E0230504D52B23C7
:103320008DF82430012303E0E30701D02023F7E7E1
:10333000984658E00A2110E010210EE010204FF0CE
:10334000000B08900CE010214FF0000B44F0040437
:103350004FF00809089103E008214FF0000B089195
:10336000C4F30253022B04D001CF0021032B06D05B
:1033700006E0FF1D27F00707F7E8020103E080B22F
:10338000042B00D1C0B24FF0000823072BD5702AC0
:1033900007D0DDF820C08CF0100C5CEA0B0C05D0D7
:1033A0000EE040238DF82430012308E050EA0103A9
:1033B00006D030238DF824308DF82520022398463E
:1033C000DDF820C08CF0080C5CEA0B0C0BD150EA45
:1033D000010301D1630706D530238DF824304FF067
:1033E0000108A9F10109582A04D038A20B9208AAB1
:1033F0000A920BE03AA2F9E75B46089AFCF7E1FE75
:103400000B9B9B5C0A9A521E0A92137050EA0102AF
:10341000F2D10A98ADEB000000F1200B600702D555
:1034200024F4803401E04FF00109D94502DDA9EB15
:103430000B0000E0002000EB0B0141440890AAEBD8
:10344000010AE00306D4DDE90F232146504600F0CF
:1034500063F806444FF0000908E009A911F80900D3
:10346000DDE90F12904709F10109761CC145F4DB33
:10347000E0030CD5DDE90F232146504600F04CF85F
:10348000064404E0DDE90F1230209047761C0899CD
:10349000481E08900029F5DC08E00A980A9900788F
:1034A000491C0A91DDE90F129047761CBBF100011F
:1034B000ABF1010BF1DC21465046DDE90F2300F0B2
:1034C00019F806446D1C1BE609280100303132331F
:1034D0003435363738396162636465660000000050
:1034E000303132333435363738394142434445463A
:1034F000000000002DE9F041044600251E46174655
:10350000880404D405E039462020B0476D1C641EB1
:10351000F9D52846BDE8F0812DE9F04104460025A3
:103520001E469046C80301D5302700E020278804B6
:1035300004D505E041463846B0476D1C641EF9D5F8
:103540002846BDE8F0810A68531C0B601070704774
:103550002DE9FF4F95B08B461F46DDF888804FF070
:10356000000A17B1B8F1000F03D1292019B0BDE846
:10357000F08F0BEB0700401E72490988884201DD7D
:103580002920F3E717984044401E6E494988884235
:1035900001DD2920EAE74FF4806002F027FB0446B2
:1035A0000CB91120E2E74FF40A7002F01FFB1490EF
:1035B0004FF40A7164A0FFF761FD149820B920460A
:1035C00002F01BFB1120D1E74FF0420942220021FB
:1035D00003A802F0DBFA2820CDF81A00CDF81E70FF
:1035E000CDF822800121ADF826101021ADF8281069
:1035F0000321CDF82A10DDF82210DDF81E205143FA
:10360000BDF8282001FB02F0C11700EB5171CA1070
:10361000CDF82E2044F64250ADF80C00DDF82E0017
:103620004844CDF80E00CDF816904FF47840CDF810
:1036300042004FF4FC61CDF846101F21CDF84A102E
:103640002398012805D10322DDE9140100F0D0FF01
:103650008246239810B1BAF1040F05D10622DDE9A4
:10366000140100F0C5FF8246DDF81E104800C117A6
:1036700000EB91718910A0EB810161B1DDF81E10A2
:103680004800C11700EB91718910491C4FF6FF7279
:1036900002EA810605E0DDF81E004FF6FF7101EA3F
:1036A0004006BAF1000F45D12A4B4A4603A91498A7
:1036B00001F099F9824617984044401E80B201906B
:1036C0002DE00025CDF808B014E0DDF81E00A8427A
:1036D00006DDDDE90110FDF7EDFC24F8150003E03F
:1036E0004FF6FF7024F81500681C85B20298401C44
:1036F00080B2029006EBD671B5EB610FE5D1DDF833
:103700002200401ECDF82200124B3246214614986A
:1037100001F069F982460198401E80B20190DDF8FF
:1037200022000028CDD151460BA0FFF7A7FC14982A
:1037300000F061FE204602F060FA149802F05DFA93
:10374000504613E7180000202073697A653D202554
:10375000640D0A003C0000207265733D257800006E
:1037600070B50646002510E02A460BA13046FFF74B
:1037700095FC012231460D48006800F039FF0446EF
:10378000042C00D105E0681C85B24FF6FF7085421D
:10379000EADB00BF70BD0000303A50484F544F2F55
:1037A000504943253035642E626D7000340000208E
:1037B00070B52E48007800284BD00120FDF706FC9C
:1037C0002B484088A0F1F00606EBD670C0F34F01FD
:1037D000EF2340F23F120020FDF796FC0020254920
:1037E000086080212448FDF754FB80212248FDF722
:1037F00052FB80212048FDF74CFB01201F49C1F8F6
:10380000880180211C48FDF746FB4FF496341EE0EA
:1038100080211948FDF73DFB19480068C5B2802199
:103820001548FDF738FB4FF6FF7000EA05258021AB
:103830001148FDF72EFB12480068C0B205438021F5
:103840000D48FDF728FB2846FDF7FCFD641E002C03
:10385000DED10020054908700A480078401C09495B
:1038600008700020FDF7B2FB70BD000021000020B1
:103870001800002088012242000C01400000224272
:10388000081C01402200002070B504460D460020AF
:103890002071401EE0622946204602F091F808B1EE
:1038A000032070BD94F82E1294F82F0241EA0020F4
:1038B0004AF65521884201D00220F2E794F86900C7
:1038C000010694F8680041EA004194F8670041EA73
:1038D000002094F86610084320F07F400D4988428C
:1038E00001D10020DDE794F88500010694F88400FA
:1038F00041EA004194F8830041EA002094F88210E4
:10390000084320F07F400349884201D10020C8E7E6
:103910000120C6E746415400024600E0521C1078E0
:1039200010B110788842F9D11078704770B503460D
:103930000D46586A021D680A1E68B678B0FBF6F498
:1039400000BF02CA09B9002070BD8C4200D202E05B
:10395000641A121DF5E700BF10682044F4E7024620
:10396000891E5069801E884201D8002070479378D4
:10397000906A01FB0300F9E72DE9F04780460C4609
:10398000A17EE07E41EA002010B10020BDE8F08772
:10399000207800F03F00401E00EB800101EBC006E4
:1039A0004FF00109002524E01A48405D205C1949C8
:1039B000495D2144497840EA0127B9F1000F11D04F
:1039C000FF2E0BD2384601F04FF982463146761C65
:1039D00038F8110001F048F9824501D00020D5E700
:1039E000B94605E04FF6FF70874201D00020CDE7D1
:1039F0006D1C0D2DD8D3207800F0400038B1B9F1FE
:103A0000000F04D038F8160008B10020BEE70120EE
:103A1000BCE700001C7600082DE9F0470446894603
:103A2000B9F1000F06D1E76817B16069B84215D83F
:103A3000012713E04946204601F00EFC0646022EFF
:103A400002D20120BDE8F087701C08B93046F9E7C2
:103A50006069B04201D93046F4E74F463D4600BFA9
:103A60006D1C6069A84204D80225BD4201D900201E
:103A7000E8E72946204601F0EFFB064606B909E0D3
:103A8000701C08B1012E01D13046DBE7BD42E7D101
:103A90000020D7E700BF6FF070422946204602F0B1
:103AA000B3F88046B8F1000F08D1B9F1000F05D086
:103AB0002A464946204602F0A7F88046B8F1000F92
:103AC0000BD1E5602069401C78B12069401E20615F
:103AD000607940F00100607107E0B8F1010F02D198
:103AE0004FF0FF3000E0012005462846AAE700001D
:103AF0002DE9F34F83B0814604980068019002E0FD
:103B00000198401C0190019800782F28F8D0019866
:103B100000785C28F4D0D9F81CA000252F4600BFFF
:103B200038467F1C01990C5C202C03DB2F2C01D024
:103B30005C2C00D132E0FF2D03D3062005B0BDE898
:103B4000F08FE4B2812C13DBE0B2FE2810DC3846A3
:103B50007F1C01990E5C06EB042084B2402E01DB31
:103B60007E2E05DD802E01DBFE2E01DD0620E5E741
:103B70000121204601F02CF804460CB90620DDE7AF
:103B8000802C06DA214671A0FFF7C6FE08B1062098
:103B9000D4E728466D1C2AF81040C1E700BF019801
:103BA000C11904980160202C01DA042000E00020F3
:103BB000804608E0681E3AF81040202C02D02E2CD7
:103BC00000D002E06D1E002DF4D100BF0DB906201B
:103BD000B4E700202AF815000B222021D9F818009C
:103BE00001F0E4FE002700E07F1C3AF817002028CF
:103BF000FAD03AF817002E28F6D00FB148F0030893
:103C000000E06D1E25B1681E3AF810002E28F8D18C
:103C10000020064602904FF0080B00BF38467F1C7C
:103C20003AF8104004B963E0202C03D02E2C04D1C4
:103C3000AF4202D048F00308F0E70298584501D29D
:103C4000AF4214D1BBF10B0F02D148F003084FE093
:103C5000AF4201D048F00308AF4200D948E02F46F8
:103C6000082002904FF00B0BB006060ED6E7802C12
:103C700009DB204600F0F8FF0021009000F0A8FFCB
:103C8000044648F00208FF2C11DDABF10100029957
:103C9000884204D848F00308CDF808B0BEE72212E5
:103CA000D9F818300298411C02911A5419E024B135
:103CB000214629A0FFF730FE18B15F2448F0030821
:103CC0000FE0412C04DB5A2C02DC46F0020608E02F
:103CD000612C06DB7A2C04DC46F00106A4F12000FE
:103CE00084B2D9F818300298411C02911C5495E70F
:103CF00000BFD9F818000078E52803D10520D9F8CD
:103D000018100870BBF1080F01D1B006060E06F0BE
:103D10000C000C2803D006F00300032801D148F062
:103D2000020808F0020058B906F00300012801D18A
:103D300048F0100806F00C00042801D148F00808EB
:103D4000D9F8180080F80B800020F7E6222A3A3CC8
:103D50003E3F7C7F000000002B2C3B3D5B5D000064
:103D60000146114A12884A434FF0E0235A6100226B
:103D70009A611A46126942F001021A6100BF4FF0BF
:103D8000E022106900F001021AB100F48032002A2A
:103D9000F5D04FF0E022126922F001024FF0E0234B
:103DA0001A6100229A6170472A0000200146114AD8
:103DB00012784A434FF0E0235A6100229A611A4672
:103DC000126942F001021A6100BF4FF0E02210694F
:103DD00000F001021AB100F48032002AF5D04FF051
:103DE000E022126922F001024FF0E0231A61002262
:103DF0009A617047280000202DE9F04104460E46E4
:103E00000021204600F0B7F90546EDB9002700BFB4
:103E10002169206801F0D4FD054605B113E0606911
:103E20000078E52802D06069007820B9781C074640
:103E3000B04201D107E000270121204600F07FF8C1
:103E40000546002DE4D000BF042D00D107252846EB
:103E5000BDE8F0812DE9F04704460021204600F03E
:103E60008AF9074617B13846BDE8F0874FF0FF09D9
:103E7000CA464FF6FF70208400BF2169206801F018
:103E80009FFD074607B157E065692E780EB90427F4
:103E900052E0E87A00F03F08E52E05D008F008006F
:103EA00040B1B8F10F0F05D04FF0FF094FF6FF708A
:103EB00020843AE0B8F10F0F1CD1E06978B306F026
:103EC000400030B195F80DA026F04006B146E088DC
:103ED00020844E450AD1687B504507D12946E069C8
:103EE000FFF74AFD10B1A9F1010000E0FF2000F04A
:103EF000FF091AE0B9F1000F05D1284601F063FF70
:103F0000504500D118E0A069C07A00F0010038B92E
:103F10000B222846A16901F029FD08B90CE004E054
:103F20004FF0FF094FF6FF7020840021204600F07B
:103F300006F80746002FA0D000BF384694E72DE9C9
:103F4000F04104468846E088461CB0B208B12069BA
:103F500010B90420BDE8F08106F00F0000286BD1F5
:103F60002069401C2061E06828B920680089B042BF
:103F700062D80420EEE720688078401E00EA161020
:103F8000002859D1E168206801F066F90546012D45
:103F900001D80220DEE7681C08B90120DAE72068B2
:103FA0004069A84242D8B8F1000F01D10420D1E7FE
:103FB000E1682068FFF730FD05460DB90720C9E725
:103FC000012D01D10220C5E7681C08B90120C1E715
:103FD000206801F06CFF08B10120BBE7216801F106
:103FE00030004FF40072002101F0E0FC2946206807
:103FF000FFF7B5FC2168C86200270EE001202168A8
:104000000871206801F053FF08B10120A2E7206881
:10401000C06A401C2168C8627F1C20688078B84252
:10402000ECD82068C06AC01B2168C862E5602946D8
:104030002068FFF794FC2061E6802068303006F0AD
:104040000F0100EB41106061002083E72DE9FE4F76
:104050000446D4F81880D4F81C900C2241466846D7
:1040600001F097FC00BF9DF80B0000F0010020B3A9
:10407000002088F80B00E06101260CE033464A4638
:104080006946404601F082F82046FFF7E3FE054608
:1040900005B102E0761C642EF0D300BF642E02D17D
:1040A0000720BDE8FE8F042D01D02846F9E79DF8D2
:1040B0000B0088F80B00C4F81C909DF80B0000F072
:1040C000020060B1002600E0761C39F816000028D6
:1040D000FAD106F119000D21B0FBF1F700E001273C
:1040E00039462046FFF788FE054645BB781E070087
:1040F00025D0E088C11B204600F03DF80546F5B903
:10410000A06901F060FE824600BF2169206801F0CD
:1041100057FC054605B111E0FAB253466169E06902
:1041200000F09AFF01202168087100212046FFF766
:1041300006FF054615B9781E0700E6D100BFC5B9D0
:104140002169206801F03CFC054695B92022002138
:10415000606901F02BFC0B22D4E9050101F019FC88
:10416000A069C07A00F01800616908730120216815
:104170000871284695E72DE9F04104460E46E68091
:10418000A568012D03D020684069A84202D802200A
:10419000BDE8F0812DB920680078032801D120689E
:1041A000456A45B920680089B04201D80220EFE78E
:1041B0002068476A1EE0206880784FEA001812E005
:1041C0002946206801F048F80546681C08B9012016
:1041D000DEE7022D03D320684069A84201D80220FF
:1041E000D6E7A6EB08064645EAD229462068FFF73F
:1041F000B6FB0746E5600FB90220C9E707EB1610CA
:1042000020612068303006F00F0100EB4110606142
:104210000020BDE770B5054625B1012D06D0022D61
:104220000CD10AE0FDF712FE044609E0FCF75AF84B
:104230004FF440500549088002E001E0012400BF2E
:1042400000BF0CB1012070BD0020FCE72C00002055
:104250002DE9F04107460E46144627B1012F1ED026
:10426000022F39D137E036B1012E0FD0022E04D003
:10427000032E10D106E000250FE04FF400702060FF
:1042800000250AE008202080002506E0FDF7A2FDB9
:104290002060002501E0042500BF00BF00BF36B14B
:1042A000012E0FD0022E04D0032E10D106E00025DF
:1042B0000FE04FF40070208000250AE008202080E5
:1042C000002506E0064800882060002501E004255E
:1042D00000BF00BF00BF00BF00BF2846BDE8F0819F
:1042E0002C0000202DE9F04180460F4616461C4662
:1042F00014B90420BDE8F081B8F1000F06D0B8F180
:10430000010F15D0B8F1020F22D120E0E2B2314600
:104310003846FDF75FFE054607E0FDF797FDE2B280
:1043200031463846FDF756FE0546002DF5D111E021
:1043300009E071024FF400723846FCF72BF8761C46
:1043400007F50077641E002CF3D1002502E001E0A0
:10435000012500BF00BF0DB90020CBE70120C9E750
:10436000014621B1012904D0022906D103E01046FB
:1043700070471046FCE71046FAE70120F8E72DE900
:10438000F04180460F4616461C4614B90420BDE88D
:10439000F081B8F1000F06D0B8F1010F15D0B8F1D7
:1043A000020F22D120E0E2B231463846FDF740FF4D
:1043B000054607E0FDF74AFDE2B231463846FDF713
:1043C00037FF0546002DF5D10FE009E071024FF4EB
:1043D00000723846FCF74AF8761C07F50077641E31
:1043E000002CF3D1002500E000BF00BF0DB9002074
:1043F000CDE70120CBE770B50546284600F09BFAD3
:10440000044634B9284601F07BFD04460CB900206F
:104410002860204670BD2DE9F14F8CB000F095FF6B
:10442000064601220CA903A800F04CFC0546002D0D
:104430007BD14FF4007000F009FC8046B8F1000F0A
:1044400003D111200DB0BDE8F08FCDF82880CDF854
:1044500024D003A80C9900F03FFE054605B90825B5
:1044600000BF042D7AD100210398FFF7D5FA074643
:10447000002507B90725012F00D10225781C00B9B6
:1044800001251DB9039801F012FD0546002D5BD1F1
:1044900039460398FFF763FA8246039800F1300427
:1044A0004FF400720021204601F080FA0B222021F7
:1044B000204601F07BFA2E2020701020E072A675B5
:1044C000310AE175310C2176310E6176394620468C
:1044D00001F071FC2022214604F1200001F059FA7C
:1044E0002E2084F82100DDF814B00398007803280A
:1044F00004D10398406A584500D1AB46594604F1AF
:10450000200001F058FC039890F8029018E00398FE
:10451000C0F82CA00AF1010A012003990871039840
:1045200001F0C5FC05460DB10DE030E04FF400721E
:104530000021204601F03AFAA9F1010000F0FF093C
:10454000B9F1000FE3D100BF1DB903A8FFF77EFD4D
:10455000054625B13946039801F0F7FB14E0089CA5
:104560001020E072A675310AE175310C2176310E0A
:1045700061763946204601F01EFC0120039908713E
:10458000039801F030FC0546404600F066FB2846E3
:1045900058E70000F7B582B016460398019001A8CD
:1045A00000F0D5FE0546002D02DA0B2005B0F0BD67
:1045B0000E4850F825400CB100202070029810B130
:1045C0000020029908700949029841F825000298D4
:1045D00008B1012E01D00020E8E7002203A902A8BB
:1045E00000F070FB07463846E0E700006814002042
:1045F0002DE9F7478DB0054616461DB9092010B0C4
:10460000BDE8F0870020286006F01F0626F00102B2
:104610000EA904A800F056FB0746002F77D14FF4EF
:10462000007000F013FB8146B9F1000F01D1112099
:10463000E5E7CDF82C9001A80A9004A80E9900F0A7
:104640004BFD0746099C0FB904B9062706F01C006C
:1046500000285DD04FB1042F03D104A8FFF7F6FC6A
:10466000074646F00806099C09E0E07A00F01100D0
:1046700008B1072703E006F0040000B10827002F67
:1046800055D106F00800002851D000F05EFE8046AB
:1046900084F80E804FEA1821E1734FEA1841217423
:1046A0004FEA1861617484F816804FEA1821E175A9
:1046B0004FEA184121764FEA186161760020E072D6
:1046C000207700216177A177E1772146049800F0F7
:1046D00094FE82460021204601F06DFB01200499E2
:1046E0000871BAF1000F22D00498D0F82C805146FE
:1046F000049801F02AFB0746CFB9AAF101000499FA
:10470000C8604146049801F05BF907460FE038E0C5
:104710006FB9E07A00F0100008B1042707E006F056
:10472000020020B1E07A00F0010000B1072747B98C
:1047300006F0080008B146F020060498C06AE86157
:104740002C62484600F089FADFB9AE710020E871AA
:104750002146049800F051FE2861E07F0106A07F09
:1047600041EA0041607F41EA0020217F0843E86080
:104770000020A860A8616862049828602868C08842
:10478000A88038463BE72DE9FF4F83B00446154625
:104790009A46DDF810B00020CAF80000204601F06B
:1047A000AFFB0290029818B1029807B0BDE8F08FF5
:1047B000E07908B1E079F8E7A07900F0010008B9E4
:1047C0000720F2E7D4E90210401A009000988542D1
:1047D00000D9009DAAE02089C0F30800002876D106
:1047E00020688078401EA16800EA512000F0FF098F
:1047F000B9F1000F1FD1A06810B9206901900CE039
:10480000606A28B12046A168FFF790F8019004E0A3
:104810006169206800F020FD01900198022802D211
:104820000220E071C1E70198401C10B90120E0713D
:10483000BBE70198606161692068FFF790F8064660
:1048400016B90220E071B0E74E444FEA5528B8F19E
:10485000000F29D009EB080021688978884203D924
:1048600020688078A0EB09082168487843463246E2
:104870005946FFF737FD10B10120E07195E7A079A7
:1048800000F0400068B1A069801B404509D2A169D1
:10489000891B0BEB41204FF4007204F1280101F059
:1048A00078F84FEA482737E0A069B04220D0A079D5
:1048B00000F0400080B121684878012304F128010C
:1048C000A269FFF75CFD18B10120E0716DE710E00F
:1048D000A07920F04000A071216848780123324679
:1048E00004F12801FFF7FEFC10B10120E0715CE744
:1048F000A6612089C0F30800C0F50077AF4200D957
:104900002F462089C0F3080204F1280011183A4606
:10491000584601F03EF800BFBB44A0683844A06090
:10492000DAF800003844CAF80000ED1B002D7FF4CF
:1049300052AF002039E72DE9F0410446204601F04E
:10494000DFFA0746002F4CD1A07900F020000028A4
:1049500047D0A07900F0400078B121684878012361
:1049600004F12801A269FFF70AFD10B10120BDE89A
:10497000F081A07920F04000A071E169206801F089
:104980001FF80746002F2CD1256AE87A40F0200056
:10499000E872207B2877A089010A6977E068010C1A
:1049A000A977E068010EE9772846216901F003FA4A
:1049B00000F0CBFC0646AE75310AE975310C29765C
:1049C000310E69760020A8740021E974A07920F0E6
:1049D0002000A071012021680871206801F003FA0D
:1049E00007463846C3E72DE9FF4F83B00446154616
:1049F0009B46049801900020CBF80000204601F06F
:104A00007FFA0290029818B1029807B0BDE8F08FC3
:104A1000E07908B1E079F8E7A07900F0020008B980
:104A20000720F2E7A0682844A168884200D2002548
:104A3000BEE02089C0F3080000287DD1206880787E
:104A4000401EA16800EA512000F0FF0ABAF1000FF1
:104A500026D1A06838B9276997B900212068FEF7E8
:104A6000DBFF07460CE0606A28B12046A168FEF72C
:104A70005DFF074604E061692068FEF7CDFF074649
:104A800007B998E0012F02D10220E071BDE7781C40
:104A900010B90120E071B8E76761206900B92761AA
:104AA000A07900F0400078B121684878012304F132
:104AB0002801A269FFF763FC10B10120E071A4E7AF
:104AC000A07920F04000A07161692068FEF747FFDF
:104AD000064616B90220E07197E756444FEA552979
:104AE000B9F1000F2CD00AEB0900216889788842BF
:104AF00003D920688078A0EB0A09216848784B46E2
:104B000032460199FFF73BFC10B10120E0717CE7D0
:104B1000A069801B48450ED2A069801B019A02EB58
:104B200040214FF4007204F1280000F032FFA07918
:104B300020F04000A07100E016E04FEA49282AE08A
:104B4000A069B0420FD0D4E9020188420BD221689B
:104B500048780123324604F12801FFF7C3FB10B166
:104B60000120E07151E7A6612089C0F30800C0F57B
:104B70000078A84500D9A8462189C1F3080204F1AC
:104B8000280150184246019900F003FFA07940F037
:104B90004000A07100BF019840440190A0684044CB
:104BA000A060DBF800004044CBF80000A5EB08054E
:104BB000002D7FF43EAF00BFD4E90201884201D945
:104BC000A068E060A07940F02000A07100201CE700
:104BD0002DE9F04102460F46802A01DA10462FE007
:104BE0001FB1184B45F2205602E0174B45F22056F4
:104BF0000025102416E0A6EB050C0CEBDC7805EB89
:104C000068014FEA410C33F81CC0944500D10BE019
:104C10004FEA410C33F81CC0944501DA0D4600E020
:104C20000E46641E002CE6D100BF34B14FF0010CDB
:104C30000CEB410C33F81CC001E04FF0000C604657
:104C4000BDE8F081DACA01085676000810B50446BE
:104C50002146002000F0B6FF10BD10B504462146E5
:104C6000002000F09DFF10BD30B5802807DA6128D4
:104C700023DB7A2821DCA0F12005A8B21DE00C225C
:104C800000234FF4F77400BFE51A03EB55010B4DF9
:104C900035F81150854200D10AE0084D35F8115021
:104CA000854201DA0B4600E00C46551E2A00EBD186
:104CB00000BF12B1024D35F8110030BD5E1F030870
:104CC0003A2303082DE9F74F8AB000210A980160C2
:104CD0000B9800F03CFB09900998002803DA0B20A0
:104CE0000DB0BDE8F08FD849099851F820400CB9B3
:104CF0000C20F5E70A980460207878B16078FFF717
:104D00002FFB814609F0010040B90C9820B109F051
:104D1000040008B10A20E3E70020E1E7002020704A
:104D2000099860706078FFF775FA814609F0010014
:104D300008B10320D4E70C9820B109F0040008B1B1
:104D40000A20CDE7002739462046FEF79DFD05469F
:104D5000012D01D09DBB32E000261AE004F5F7706A
:104D600000EB061898F8040070B198F80B000106E3
:104D700098F80A0041EA004198F8090041EA002049
:104D800098F80810084300E0002002A941F8260026
:104D9000761C042EE2D3002606B1761E00BF02A8C0
:104DA00050F8267027B139462046FEF76DFD00E029
:104DB000022005461DB1701C06460428EFD3032DC2
:104DC00001D101208CE70DB10D2089E73B20015D69
:104DD00094F83C0041EA0020B0F5007F01D00D209E
:104DE0007EE74620015D94F8470041EA002ABAF1C7
:104DF000000F0ED194F85700010694F8560041EACE
:104E0000004194F8550041EA002094F8541040EA1B
:104E1000010AC4F818A04020005DE070E078012885
:104E200004D0E078022801D00D2059E7E0780AFB91
:104E300000FA3D20005DA070A07818B1A078411E56
:104E4000084008B10D204BE74120015D94F8420075
:104E500041EA00202081207A00F00F0008B10D20E7
:104E60003EE74320015D94F8440041EA00200890A9
:104E7000089870B994F85300010694F8520041EA7A
:104E8000004194F8510041EA002094F85010084382
:104E900008903E20015D94F83F0041EA0020019017
:104EA000019808B90D201BE701985044218900EBB7
:104EB00011100790DDE90701814201D20D200FE7B3
:104EC000DDE90710401AA178B0FBF1FBBBF1000F40
:104ED00001D10D2004E7012540F6F670834500D38B
:104EE00002254FF6F670834500D303250BF102002F
:104EF0006061E76101983844206207983844A062F5
:104F0000032D16D1208908B10D20E9E694F85F0041
:104F1000010694F85E0041EA004194F85D0041EA20
:104F2000002094F85C10084360626069800006907D
:104F300014E0208908B90D20D2E6206A504460624E
:104F4000022D02D16069400007E0207D00F00100E1
:104F5000616901EB410100EB51000690A1690698DF
:104F600000F2FF10B1EB502F01D20D20B8E64FF048
:104F7000FF302061E06080206071032D5AD194F8E9
:104F8000601094F8610041EA0020012852D1791C98
:104F9000204600F015FDE8BB0020607194F82E1249
:104FA00094F82F0241EA00204AF65521884241D167
:104FB0003320005D01063220005D41EA00413120CE
:104FC000005D41EA002094F8301008431F498842F0
:104FD00030D194F81702010694F8160241EA004114
:104FE00094F8150241EA002094F814120843184975
:104FF00088421FD194F81B02010694F81A0241EA74
:10500000004194F8190241EA002094F8181208436C
:10501000206100E00EE094F81F02010694F81E02E1
:1050200041EA004194F81D0241EA002094F81C1264
:105030000843E060257007480088401C80B205499D
:105040000880E08000204BE6681400205252614145
:10505000727241612E000020F0B504461D464D736A
:105060000F27CF7200270F738F76BC4681F81BC0C5
:10507000571E07EB870C0CEBC706002738463B464C
:1050800000BF4FF6FF77B84203D03746761C34F89E
:105090001700DFF840C01CF803C001F80C0007122D
:1050A000DFF830C01CF803C08C448CF8017008B9DC
:1050B0004FF6FF705F1C3B460D2FE2D34FF6FF7794
:1050C000B84202D034F816700FB942F040020A70AC
:1050D000F0BD00001C7600082DE9F341044601985C
:1050E00000782F2803D0019800785C2802D101981D
:1050F000401C01900020A06001980078202807D271
:1051000000212046FFF737F805460020606128E0BF
:1051100000BF01A92046FEF7EBFC054605B11FE0E4
:105120002046FEF797FE0546A069C67A3DB1042DDC
:1051300004D100BF06F0040000B9052510E006F018
:10514000040000B10CE06769F87A00F0100008B9BB
:10515000052505E03946206800F04FF9A060D8E742
:1051600000BF2846BDE8FC8170B504460D46E1B29B
:105170000548FDF7FAFE00BF80210348FDF727FE32
:105180000028F9D0204670BD003801402DE9FF4FBE
:1051900083B0074691461E460B223846049900F01C
:1051A000F8FB052E19D9B04612E039F802BB0025EC
:1051B0000CE0584668F35F0080464FEA6B0B08F43A
:1051C000803010B1234888EA00086D1C102DF0D300
:1051D000B9F800000028E8D14646072500BF06F0D0
:1051E0000F0000F1300ABAF1390F03DD0AF10700B0
:1051F00000F0FF0A28466D1E01A901F800A036093B
:10520000002EECD17E20485500240BE0385D81282B
:1052100007DB385DFE2804DC681EA04200D106E0F2
:10522000641C641CAC4202D2385D2028EED100BF61
:1052300000BF082D04D228466D1C01A9095C00E0BE
:1052400020212046641C3954082CF2D307B0BDE855
:10525000F08F0000211001002DE9F04705460C46B3
:10526000022C02D36869A04202D84FF0010969E01C
:105270004FF0FF392878012804D002282ED00328C7
:105280005CD13FE0274607EB5707286A00EB572120
:10529000284600F095FB00B153E038467F1CC0F370
:1052A000080105F1300010F80180286A00EB572151
:1052B000284600F085FB00B143E0C7F3080105F183
:1052C0003000405C48EA002804F0010010B14FEAC9
:1052D000181001E0C8F30B00814632E0286A00EBA9
:1052E0001421284600F06CFB00B12AE040F2FF10C8
:1052F00000EA440105F130000E183078717840EA78
:1053000001291EE0286A00EBD411284600F058FB62
:1053100000B116E040F2FF1000EA840105F1300010
:105320000E18F0780006B17840EA0140717840EA42
:1053300001203178084320F0704902E04FF0010964
:1053400000BF00BF4846BDE8F0870020704770B539
:1053500002464FF0FF301568E5B1116800E0491CC6
:105360000D78202D02D30D783A2DF8D10D783A2DF5
:105370000FD1146814F8015BA5F130030A2B07D292
:105380008C4205D1032B03D218464D1C29461560CB
:1053900070BD002000BFFBE7F0B503460D46164682
:1053A000002729460A2E03D0002008702846F0BDA9
:1053B00033B9302001F8010B002008702846F6E7C9
:1053C000002B03DA2D2001F8010B5B4242F2107230
:1053D0000DE093FBF2F404B937B104F1300001F8A9
:1053E000010B04FB123301270A2092FBF0F2002A82
:1053F000EFDC002008702846D9E710B502468C7E05
:10540000CB7E44EA03201378032B05D10C7D4B7D22
:1054100044EA032340EA034010BD00001CB54FF0EE
:1054200000084820FDF786F84FF4A060FCF766F806
:10543000FCF70EF84FF41650FDF7B6FB4FF4E130D1
:10544000FBF780F9FBF716FAFDF73AF9FBF728FDB1
:10545000FAF748FF002000F003FB19E0F5A018213F
:10546000CDE90010F748438802880A210846FBF777
:10547000A9FFC820FEF774FC4FF6FF70CE23EF2281
:105480000A2100900846FBF7E1FDC820FEF768FC02
:10549000FCF7AEF80028E1D1EBA01821CDE900100F
:1054A000E848438802880A210846FBF78BFF40F250
:1054B000DC50FEF755FC19E0E6A01821CDE90010FC
:1054C000E0484388028828210A20FBF77BFFC82098
:1054D000FEF746FC4FF6FF70CE23EF221E21009010
:1054E0000A20FBF7B3FDC820FEF73AFCFBF756FB9A
:1054F0000028E1D1DBA01821CDE90010D148438874
:10550000028828210A20FBF75DFF40F2DC50FEF7FD
:1055100027FC00BFD64901220868D6A1FFF73AF858
:10552000D5A0FEF778FF0546082D1CD0DDB1D5A02B
:105530001821CDE90010C3484388028846210A207B
:10554000FBF740FFC820FEF70BFCD1A01821CDE9E6
:105550000010BC484388028864210A20FBF732FF10
:105560004FF0000925E0CEA01821CDE90010B54884
:105570004388028846210A20FBF724FFC820FEF753
:10558000EFFBCAA01821CDE90010AE48438802887D
:1055900064210A20FBF716FFC9A01821CDE90010ED
:1055A000A8484388028882210A20FBF70BFF4FF0AE
:1055B0000109B9F1010FADD11E21002000F002FB5D
:1055C000064619E0C2A01821CDE900109D48438885
:1055D000028882210A20FBF7F5FEC820FEF7C0FBF7
:1055E0004FF6FF70CE23EF221E2100900A20FBF71A
:1055F0002DFDC820FEF7B4FB002EE3D00020FCF701
:1056000077F80220FBF79DFF0220FBF781FF0220C5
:10561000FBF7D4FF0020FCF799F841F61F4142F256
:105620001070FDF7F3F9FBF70DFA4FF4A073F022B9
:10563000B0210C20FCF7BFF80020A94908604FF604
:10564000FF70FBF79FFC8EE1FEF7B2F80020FBF73E
:105650004BFC0446012C32D1B9F1000F27D0304663
:10566000FEF77EF800204FF4A071F0230246CDE94A
:10567000001001463046FDF76BFF60B199A018217C
:10568000CDE900106F48438802884FF4A5710A20C5
:10569000FBF798FE0BE098A01821CDE900106948AF
:1056A000438802884FF4A5710A20FBF78BFEC820BF
:1056B000FEF756FB4FF6FF70FBF764FCA7E0022CE9
:1056C00024D10A21002000F07DFA0746FAF7AAFF4C
:1056D00039468DA0FCF7B6F8394691A0FDF7CEFC0F
:1056E00090A01821CDE900105648438802880A216D
:1056F0000846FBF767FE1820CDE9000751484388AC
:1057000002880A210846FBF75DFE80E0042C3ED1AA
:105710004FF6FF70FBF736FC83A01821CDE900108F
:105720004848438802884FF4A5710A20FBF74AFED7
:1057300041F28830FEF714FB7FA01821CDE900105C
:105740004048438802884FF4A5710A20FBF73AFECF
:105750007BA24FF4A5715E20FBF7C0FD79A0182154
:10576000CDE900103748438802884FF4A5717E20A8
:10577000FBF728FE75A01821CDE9001031484388B9
:1057800002884FF4B4710A20FBF71CFE3FE0032CA3
:105790003DD14FF6FF70FBF7F5FB63A01821CDE973
:1057A00000102848438802884FF4A5710A20FBF7AF
:1057B00009FE41F28830FEF7D3FA5FA01821CDE947
:1057C00000102048438802884FF4A5710A20FBF797
:1057D000F9FD5BA24FF4A5715E20FBF77FFD59A098
:1057E0001821CDE900101748438802884FF4A571AD
:1057F0007E20FBF7E7FD57A01821CDE900101148E6
:10580000438802884FF4B4710A20FBF7DBFD08F1EE
:10581000010000F0FF08142098FBF0F100FB11805C
:1058200028B92F480C38006810B9012099E09AE097
:1058300096E000004F5637363730204552524F52CF
:1058400021000000180000204F5637363730204F17
:105850004B2100004641544653204552524F52219D
:10586000000000004641544653204F4B21000000E9
:1058700074140020303A0000303A2F50484F544FF3
:10588000000000005344204552524F5221000000B6
:1058900050484F544F204552524F522100000000B3
:1058A00050484F544F204F4B210000004B45595F4B
:1058B00055502054414B452050484F544F21000033
:1058C0004B45595F444F574E204C50522100000029
:1058D0004D454D4F5259204552524F522100000024
:1058E0008C01224254414B452050484F544F204593
:1058F00052524F522100000054414B452050484F16
:10590000544F204F4B210000303A50484F544F2FF6
:1059100050494330303030312E626D70000000004D
:10592000257300004F4B210053454E442044415401
:10593000412E2E2E2E2E2E00524553554C543A00F9
:10594000B4A8000041384834353800005041593A75
:10595000000000005041593A3320524D42000000EF
:105960000020014908606FE680012242F0B503463D
:105970001C460D46002000BF1600A2F1010207D010
:1059800014F8017B15F801CBA7EB0C063000F3D01F
:10599000F0BD70B503460C4603E014F8015B03F854
:1059A000015B1500A2F10102F7D170BD30B50346CD
:1059B00001E003F8011B1400A2F10102F9D130BD8E
:1059C00070B504460D460026E06AA84210D0204675
:1059D00000F06DFA06465EB9607801232A4604F1AC
:1059E0003001FEF77FFC10B14FF0FF350126E56274
:1059F000304670BD2DE9F04104460E461548005D65
:105A000038B9144818380168204688470120BDE895
:105A1000F081114850F82400B04219D90F4850F8CD
:105A20002400B6FBF0F10B48083850F8240030F899
:105A30001120002508E000230648083850F824000B
:105A40004F1920F817306D1C9542F4DB0020DEE77B
:105A50000220DCE75C000020282703082027030839
:105A600010B504460C4951F824104A000B4951F86E
:105A70002400002100F08AF8094951F82420074940
:105A8000083951F82400002100F080F80121034872
:105A90000830015510BD00001827030854000020ED
:105AA000282703082DE9F04704460F460025A9469C
:105AB0002348005D20B922481838016820468847ED
:105AC0001FB94FF0FF30BDE8F0871E4850F82400A2
:105AD000B7FBF0F61B4850F82400B7FBF0F100FBD1
